{
	"contracts/TodoList.sol": {
		"TodoList": {
			"abi": [
				{
					"inputs": [],
					"stateMutability": "nonpayable",
					"type": "constructor"
				},
				{
					"anonymous": false,
					"inputs": [
						{
							"indexed": true,
							"internalType": "uint256",
							"name": "id",
							"type": "uint256"
						}
					],
					"name": "TaskComplete",
					"type": "event"
				},
				{
					"inputs": [
						{
							"internalType": "string",
							"name": "_task",
							"type": "string"
						}
					],
					"name": "addTask",
					"outputs": [],
					"stateMutability": "nonpayable",
					"type": "function"
				},
				{
					"inputs": [
						{
							"internalType": "uint256",
							"name": "id",
							"type": "uint256"
						}
					],
					"name": "completeTask",
					"outputs": [],
					"stateMutability": "nonpayable",
					"type": "function"
				},
				{
					"inputs": [],
					"name": "count",
					"outputs": [
						{
							"internalType": "uint256",
							"name": "",
							"type": "uint256"
						}
					],
					"stateMutability": "view",
					"type": "function"
				},
				{
					"inputs": [
						{
							"internalType": "uint256",
							"name": "",
							"type": "uint256"
						}
					],
					"name": "list",
					"outputs": [
						{
							"internalType": "string",
							"name": "task",
							"type": "string"
						},
						{
							"internalType": "bool",
							"name": "isComplete",
							"type": "bool"
						}
					],
					"stateMutability": "view",
					"type": "function"
				},
				{
					"inputs": [],
					"name": "owner",
					"outputs": [
						{
							"internalType": "address",
							"name": "",
							"type": "address"
						}
					],
					"stateMutability": "view",
					"type": "function"
				}
			],
			"devdoc": {
				"kind": "dev",
				"methods": {},
				"version": 1
			},
			"evm": {
				"assembly": "    /* \"contracts/TodoList.sol\":68:885  contract TodoList {... */\n  mstore(0x40, 0x80)\n    /* \"contracts/TodoList.sol\":244:245  0 */\n  0x00\n    /* \"contracts/TodoList.sol\":221:245  uint256 public count = 0 */\n  0x01\n  sstore\n    /* \"contracts/TodoList.sol\":326:378  constructor () {... */\n  callvalue\n  dup1\n  iszero\n  tag_1\n  jumpi\n  0x00\n  dup1\n  revert\ntag_1:\n  pop\n    /* \"contracts/TodoList.sol\":360:370  msg.sender */\n  caller\n    /* \"contracts/TodoList.sol\":352:357  owner */\n  0x02\n  0x00\n    /* \"contracts/TodoList.sol\":352:370  owner = msg.sender */\n  0x0100\n  exp\n  dup2\n  sload\n  dup2\n  0xffffffffffffffffffffffffffffffffffffffff\n  mul\n  not\n  and\n  swap1\n  dup4\n  0xffffffffffffffffffffffffffffffffffffffff\n  and\n  mul\n  or\n  swap1\n  sstore\n  pop\n    /* \"contracts/TodoList.sol\":68:885  contract TodoList {... */\n  dataSize(sub_0)\n  dup1\n  dataOffset(sub_0)\n  0x00\n  codecopy\n  0x00\n  return\nstop\n\nsub_0: assembly {\n        /* \"contracts/TodoList.sol\":68:885  contract TodoList {... */\n      mstore(0x40, 0x80)\n      callvalue\n      dup1\n      iszero\n      tag_1\n      jumpi\n      0x00\n      dup1\n      revert\n    tag_1:\n      pop\n      jumpi(tag_2, lt(calldatasize, 0x04))\n      shr(0xe0, calldataload(0x00))\n      dup1\n      0x06661abd\n      eq\n      tag_3\n      jumpi\n      dup1\n      0x67238562\n      eq\n      tag_4\n      jumpi\n      dup1\n      0x80c9419e\n      eq\n      tag_5\n      jumpi\n      dup1\n      0x8da5cb5b\n      eq\n      tag_6\n      jumpi\n      dup1\n      0xe1e29558\n      eq\n      tag_7\n      jumpi\n    tag_2:\n      0x00\n      dup1\n      revert\n        /* \"contracts/TodoList.sol\":221:245  uint256 public count = 0 */\n    tag_3:\n      tag_8\n      tag_9\n      jump\t// in\n    tag_8:\n      mload(0x40)\n      tag_10\n      swap2\n      swap1\n      tag_11\n      jump\t// in\n    tag_10:\n      mload(0x40)\n      dup1\n      swap2\n      sub\n      swap1\n      return\n        /* \"contracts/TodoList.sol\":386:574  function addTask(string memory _task) onlyOwner public {... */\n    tag_4:\n      tag_12\n      0x04\n      dup1\n      calldatasize\n      sub\n      dup2\n      add\n      swap1\n      tag_13\n      swap2\n      swap1\n      tag_14\n      jump\t// in\n    tag_13:\n      tag_15\n      jump\t// in\n    tag_12:\n      stop\n        /* \"contracts/TodoList.sol\":173:214  mapping (uint256 => TodoItem) public list */\n    tag_5:\n      tag_16\n      0x04\n      dup1\n      calldatasize\n      sub\n      dup2\n      add\n      swap1\n      tag_17\n      swap2\n      swap1\n      tag_18\n      jump\t// in\n    tag_17:\n      tag_19\n      jump\t// in\n    tag_16:\n      mload(0x40)\n      tag_20\n      swap3\n      swap2\n      swap1\n      tag_21\n      jump\t// in\n    tag_20:\n      mload(0x40)\n      dup1\n      swap2\n      sub\n      swap1\n      return\n        /* \"contracts/TodoList.sol\":252:272  address public owner */\n    tag_6:\n      tag_22\n      tag_23\n      jump\t// in\n    tag_22:\n      mload(0x40)\n      tag_24\n      swap2\n      swap1\n      tag_25\n      jump\t// in\n    tag_24:\n      mload(0x40)\n      dup1\n      swap2\n      sub\n      swap1\n      return\n        /* \"contracts/TodoList.sol\":582:766  function completeTask(uint256 id) onlyOwner public {... */\n    tag_7:\n      tag_26\n      0x04\n      dup1\n      calldatasize\n      sub\n      dup2\n      add\n      swap1\n      tag_27\n      swap2\n      swap1\n      tag_18\n      jump\t// in\n    tag_27:\n      tag_28\n      jump\t// in\n    tag_26:\n      stop\n        /* \"contracts/TodoList.sol\":221:245  uint256 public count = 0 */\n    tag_9:\n      sload(0x01)\n      dup2\n      jump\t// out\n        /* \"contracts/TodoList.sol\":386:574  function addTask(string memory _task) onlyOwner public {... */\n    tag_15:\n        /* \"contracts/TodoList.sol\":823:833  msg.sender */\n      caller\n        /* \"contracts/TodoList.sol\":814:833  owner == msg.sender */\n      0xffffffffffffffffffffffffffffffffffffffff\n      and\n        /* \"contracts/TodoList.sol\":814:819  owner */\n      0x02\n      0x00\n      swap1\n      sload\n      swap1\n      0x0100\n      exp\n      swap1\n      div\n      0xffffffffffffffffffffffffffffffffffffffff\n      and\n        /* \"contracts/TodoList.sol\":814:833  owner == msg.sender */\n      0xffffffffffffffffffffffffffffffffffffffff\n      and\n      eq\n        /* \"contracts/TodoList.sol\":806:862  require(owner == msg.sender, \"Only owner can call this\") */\n      tag_30\n      jumpi\n      mload(0x40)\n      0x08c379a000000000000000000000000000000000000000000000000000000000\n      dup2\n      mstore\n      0x04\n      add\n      tag_31\n      swap1\n      tag_32\n      jump\t// in\n    tag_31:\n      mload(0x40)\n      dup1\n      swap2\n      sub\n      swap1\n      revert\n    tag_30:\n        /* \"contracts/TodoList.sol\":452:472  TodoItem memory item */\n      0x00\n        /* \"contracts/TodoList.sol\":475:519  TodoItem({ task: _task, isComplete: false }) */\n      mload(0x40)\n      dup1\n      0x40\n      add\n      0x40\n      mstore\n      dup1\n        /* \"contracts/TodoList.sol\":492:497  _task */\n      dup4\n        /* \"contracts/TodoList.sol\":475:519  TodoItem({ task: _task, isComplete: false }) */\n      dup2\n      mstore\n      0x20\n      add\n        /* \"contracts/TodoList.sol\":511:516  false */\n      0x00\n        /* \"contracts/TodoList.sol\":475:519  TodoItem({ task: _task, isComplete: false }) */\n      iszero\n      iszero\n      dup2\n      mstore\n      pop\n        /* \"contracts/TodoList.sol\":452:519  TodoItem memory item = TodoItem({ task: _task, isComplete: false }) */\n      swap1\n      pop\n        /* \"contracts/TodoList.sol\":544:548  item */\n      dup1\n        /* \"contracts/TodoList.sol\":530:534  list */\n      0x00\n        /* \"contracts/TodoList.sol\":530:541  list[count] */\n      dup1\n        /* \"contracts/TodoList.sol\":535:540  count */\n      sload(0x01)\n        /* \"contracts/TodoList.sol\":530:541  list[count] */\n      dup2\n      mstore\n      0x20\n      add\n      swap1\n      dup2\n      mstore\n      0x20\n      add\n      0x00\n      keccak256\n        /* \"contracts/TodoList.sol\":530:548  list[count] = item */\n      0x00\n      dup3\n      add\n      mload\n      dup2\n      0x00\n      add\n      swap1\n      dup2\n      tag_34\n      swap2\n      swap1\n      tag_35\n      jump\t// in\n    tag_34:\n      pop\n      0x20\n      dup3\n      add\n      mload\n      dup2\n      0x01\n      add\n      exp(0x0100, 0x00)\n      dup2\n      sload\n      dup2\n      0xff\n      mul\n      not\n      and\n      swap1\n      dup4\n      iszero\n      iszero\n      mul\n      or\n      swap1\n      sstore\n      pop\n      swap1\n      pop\n      pop\n        /* \"contracts/TodoList.sol\":559:564  count */\n      0x01\n      0x00\n        /* \"contracts/TodoList.sol\":559:566  count++ */\n      dup2\n      sload\n      dup1\n      swap3\n      swap2\n      swap1\n      tag_36\n      swap1\n      tag_37\n      jump\t// in\n    tag_36:\n      swap2\n      swap1\n      pop\n      sstore\n      pop\n        /* \"contracts/TodoList.sol\":441:574  {... */\n      pop\n        /* \"contracts/TodoList.sol\":386:574  function addTask(string memory _task) onlyOwner public {... */\n      pop\n      jump\t// out\n        /* \"contracts/TodoList.sol\":173:214  mapping (uint256 => TodoItem) public list */\n    tag_19:\n      mstore(0x20, 0x00)\n      dup1\n      0x00\n      mstore\n      keccak256(0x00, 0x40)\n      0x00\n      swap2\n      pop\n      swap1\n      pop\n      dup1\n      0x00\n      add\n      dup1\n      sload\n      tag_38\n      swap1\n      tag_39\n      jump\t// in\n    tag_38:\n      dup1\n      0x1f\n      add\n      0x20\n      dup1\n      swap2\n      div\n      mul\n      0x20\n      add\n      mload(0x40)\n      swap1\n      dup2\n      add\n      0x40\n      mstore\n      dup1\n      swap3\n      swap2\n      swap1\n      dup2\n      dup2\n      mstore\n      0x20\n      add\n      dup3\n      dup1\n      sload\n      tag_40\n      swap1\n      tag_39\n      jump\t// in\n    tag_40:\n      dup1\n      iszero\n      tag_41\n      jumpi\n      dup1\n      0x1f\n      lt\n      tag_42\n      jumpi\n      0x0100\n      dup1\n      dup4\n      sload\n      div\n      mul\n      dup4\n      mstore\n      swap2\n      0x20\n      add\n      swap2\n      jump(tag_41)\n    tag_42:\n      dup3\n      add\n      swap2\n      swap1\n      0x00\n      mstore\n      keccak256(0x00, 0x20)\n      swap1\n    tag_43:\n      dup2\n      sload\n      dup2\n      mstore\n      swap1\n      0x01\n      add\n      swap1\n      0x20\n      add\n      dup1\n      dup4\n      gt\n      tag_43\n      jumpi\n      dup3\n      swap1\n      sub\n      0x1f\n      and\n      dup3\n      add\n      swap2\n    tag_41:\n      pop\n      pop\n      pop\n      pop\n      pop\n      swap1\n      dup1\n      0x01\n      add\n      0x00\n      swap1\n      sload\n      swap1\n      0x0100\n      exp\n      swap1\n      div\n      0xff\n      and\n      swap1\n      pop\n      dup3\n      jump\t// out\n        /* \"contracts/TodoList.sol\":252:272  address public owner */\n    tag_23:\n      0x02\n      0x00\n      swap1\n      sload\n      swap1\n      0x0100\n      exp\n      swap1\n      div\n      0xffffffffffffffffffffffffffffffffffffffff\n      and\n      dup2\n      jump\t// out\n        /* \"contracts/TodoList.sol\":582:766  function completeTask(uint256 id) onlyOwner public {... */\n    tag_28:\n        /* \"contracts/TodoList.sol\":823:833  msg.sender */\n      caller\n        /* \"contracts/TodoList.sol\":814:833  owner == msg.sender */\n      0xffffffffffffffffffffffffffffffffffffffff\n      and\n        /* \"contracts/TodoList.sol\":814:819  owner */\n      0x02\n      0x00\n      swap1\n      sload\n      swap1\n      0x0100\n      exp\n      swap1\n      div\n      0xffffffffffffffffffffffffffffffffffffffff\n      and\n        /* \"contracts/TodoList.sol\":814:833  owner == msg.sender */\n      0xffffffffffffffffffffffffffffffffffffffff\n      and\n      eq\n        /* \"contracts/TodoList.sol\":806:862  require(owner == msg.sender, \"Only owner can call this\") */\n      tag_45\n      jumpi\n      mload(0x40)\n      0x08c379a000000000000000000000000000000000000000000000000000000000\n      dup2\n      mstore\n      0x04\n      add\n      tag_46\n      swap1\n      tag_32\n      jump\t// in\n    tag_46:\n      mload(0x40)\n      dup1\n      swap2\n      sub\n      swap1\n      revert\n    tag_45:\n        /* \"contracts/TodoList.sol\":649:653  list */\n      0x00\n        /* \"contracts/TodoList.sol\":649:657  list[id] */\n      dup1\n        /* \"contracts/TodoList.sol\":654:656  id */\n      dup3\n        /* \"contracts/TodoList.sol\":649:657  list[id] */\n      dup2\n      mstore\n      0x20\n      add\n      swap1\n      dup2\n      mstore\n      0x20\n      add\n      0x00\n      keccak256\n        /* \"contracts/TodoList.sol\":649:668  list[id].isComplete */\n      0x01\n      add\n      0x00\n      swap1\n      sload\n      swap1\n      0x0100\n      exp\n      swap1\n      div\n      0xff\n      and\n        /* \"contracts/TodoList.sol\":644:759  if (!list[id].isComplete) {... */\n      tag_48\n      jumpi\n        /* \"contracts/TodoList.sol\":707:711  true */\n      0x01\n        /* \"contracts/TodoList.sol\":685:689  list */\n      0x00\n        /* \"contracts/TodoList.sol\":685:693  list[id] */\n      dup1\n        /* \"contracts/TodoList.sol\":690:692  id */\n      dup4\n        /* \"contracts/TodoList.sol\":685:693  list[id] */\n      dup2\n      mstore\n      0x20\n      add\n      swap1\n      dup2\n      mstore\n      0x20\n      add\n      0x00\n      keccak256\n        /* \"contracts/TodoList.sol\":685:704  list[id].isComplete */\n      0x01\n      add\n      0x00\n        /* \"contracts/TodoList.sol\":685:711  list[id].isComplete = true */\n      0x0100\n      exp\n      dup2\n      sload\n      dup2\n      0xff\n      mul\n      not\n      and\n      swap1\n      dup4\n      iszero\n      iszero\n      mul\n      or\n      swap1\n      sstore\n      pop\n        /* \"contracts/TodoList.sol\":744:746  id */\n      dup1\n        /* \"contracts/TodoList.sol\":731:747  TaskComplete(id) */\n      0xd690e0586088db728b1aca4e5e6b673113b5418cb5d31497145ca4a7b6fd4663\n      mload(0x40)\n      mload(0x40)\n      dup1\n      swap2\n      sub\n      swap1\n      log2\n        /* \"contracts/TodoList.sol\":644:759  if (!list[id].isComplete) {... */\n    tag_48:\n        /* \"contracts/TodoList.sol\":582:766  function completeTask(uint256 id) onlyOwner public {... */\n      pop\n      jump\t// out\n        /* \"#utility.yul\":7:84   */\n    tag_49:\n        /* \"#utility.yul\":44:51   */\n      0x00\n        /* \"#utility.yul\":73:78   */\n      dup2\n        /* \"#utility.yul\":62:78   */\n      swap1\n      pop\n        /* \"#utility.yul\":7:84   */\n      swap2\n      swap1\n      pop\n      jump\t// out\n        /* \"#utility.yul\":90:208   */\n    tag_50:\n        /* \"#utility.yul\":177:201   */\n      tag_97\n        /* \"#utility.yul\":195:200   */\n      dup2\n        /* \"#utility.yul\":177:201   */\n      tag_49\n      jump\t// in\n    tag_97:\n        /* \"#utility.yul\":172:175   */\n      dup3\n        /* \"#utility.yul\":165:202   */\n      mstore\n        /* \"#utility.yul\":90:208   */\n      pop\n      pop\n      jump\t// out\n        /* \"#utility.yul\":214:436   */\n    tag_11:\n        /* \"#utility.yul\":307:311   */\n      0x00\n        /* \"#utility.yul\":345:347   */\n      0x20\n        /* \"#utility.yul\":334:343   */\n      dup3\n        /* \"#utility.yul\":330:348   */\n      add\n        /* \"#utility.yul\":322:348   */\n      swap1\n      pop\n        /* \"#utility.yul\":358:429   */\n      tag_99\n        /* \"#utility.yul\":426:427   */\n      0x00\n        /* \"#utility.yul\":415:424   */\n      dup4\n        /* \"#utility.yul\":411:428   */\n      add\n        /* \"#utility.yul\":402:408   */\n      dup5\n        /* \"#utility.yul\":358:429   */\n      tag_50\n      jump\t// in\n    tag_99:\n        /* \"#utility.yul\":214:436   */\n      swap3\n      swap2\n      pop\n      pop\n      jump\t// out\n        /* \"#utility.yul\":442:517   */\n    tag_51:\n        /* \"#utility.yul\":475:481   */\n      0x00\n        /* \"#utility.yul\":508:510   */\n      0x40\n        /* \"#utility.yul\":502:511   */\n      mload\n        /* \"#utility.yul\":492:511   */\n      swap1\n      pop\n        /* \"#utility.yul\":442:517   */\n      swap1\n      jump\t// out\n        /* \"#utility.yul\":523:640   */\n    tag_52:\n        /* \"#utility.yul\":632:633   */\n      0x00\n        /* \"#utility.yul\":629:630   */\n      dup1\n        /* \"#utility.yul\":622:634   */\n      revert\n        /* \"#utility.yul\":646:763   */\n    tag_53:\n        /* \"#utility.yul\":755:756   */\n      0x00\n        /* \"#utility.yul\":752:753   */\n      dup1\n        /* \"#utility.yul\":745:757   */\n      revert\n        /* \"#utility.yul\":769:886   */\n    tag_54:\n        /* \"#utility.yul\":878:879   */\n      0x00\n        /* \"#utility.yul\":875:876   */\n      dup1\n        /* \"#utility.yul\":868:880   */\n      revert\n        /* \"#utility.yul\":892:1009   */\n    tag_55:\n        /* \"#utility.yul\":1001:1002   */\n      0x00\n        /* \"#utility.yul\":998:999   */\n      dup1\n        /* \"#utility.yul\":991:1003   */\n      revert\n        /* \"#utility.yul\":1015:1117   */\n    tag_56:\n        /* \"#utility.yul\":1056:1062   */\n      0x00\n        /* \"#utility.yul\":1107:1109   */\n      0x1f\n        /* \"#utility.yul\":1103:1110   */\n      not\n        /* \"#utility.yul\":1098:1100   */\n      0x1f\n        /* \"#utility.yul\":1091:1096   */\n      dup4\n        /* \"#utility.yul\":1087:1101   */\n      add\n        /* \"#utility.yul\":1083:1111   */\n      and\n        /* \"#utility.yul\":1073:1111   */\n      swap1\n      pop\n        /* \"#utility.yul\":1015:1117   */\n      swap2\n      swap1\n      pop\n      jump\t// out\n        /* \"#utility.yul\":1123:1303   */\n    tag_57:\n        /* \"#utility.yul\":1171:1248   */\n      0x4e487b7100000000000000000000000000000000000000000000000000000000\n        /* \"#utility.yul\":1168:1169   */\n      0x00\n        /* \"#utility.yul\":1161:1249   */\n      mstore\n        /* \"#utility.yul\":1268:1272   */\n      0x41\n        /* \"#utility.yul\":1265:1266   */\n      0x04\n        /* \"#utility.yul\":1258:1273   */\n      mstore\n        /* \"#utility.yul\":1292:1296   */\n      0x24\n        /* \"#utility.yul\":1289:1290   */\n      0x00\n        /* \"#utility.yul\":1282:1297   */\n      revert\n        /* \"#utility.yul\":1309:1590   */\n    tag_58:\n        /* \"#utility.yul\":1392:1419   */\n      tag_108\n        /* \"#utility.yul\":1414:1418   */\n      dup3\n        /* \"#utility.yul\":1392:1419   */\n      tag_56\n      jump\t// in\n    tag_108:\n        /* \"#utility.yul\":1384:1390   */\n      dup2\n        /* \"#utility.yul\":1380:1420   */\n      add\n        /* \"#utility.yul\":1522:1528   */\n      dup2\n        /* \"#utility.yul\":1510:1520   */\n      dup2\n        /* \"#utility.yul\":1507:1529   */\n      lt\n        /* \"#utility.yul\":1486:1504   */\n      0xffffffffffffffff\n        /* \"#utility.yul\":1474:1484   */\n      dup3\n        /* \"#utility.yul\":1471:1505   */\n      gt\n        /* \"#utility.yul\":1468:1530   */\n      or\n        /* \"#utility.yul\":1465:1553   */\n      iszero\n      tag_109\n      jumpi\n        /* \"#utility.yul\":1533:1551   */\n      tag_110\n      tag_57\n      jump\t// in\n    tag_110:\n        /* \"#utility.yul\":1465:1553   */\n    tag_109:\n        /* \"#utility.yul\":1573:1583   */\n      dup1\n        /* \"#utility.yul\":1569:1571   */\n      0x40\n        /* \"#utility.yul\":1562:1584   */\n      mstore\n        /* \"#utility.yul\":1352:1590   */\n      pop\n        /* \"#utility.yul\":1309:1590   */\n      pop\n      pop\n      jump\t// out\n        /* \"#utility.yul\":1596:1725   */\n    tag_59:\n        /* \"#utility.yul\":1630:1636   */\n      0x00\n        /* \"#utility.yul\":1657:1677   */\n      tag_112\n      tag_51\n      jump\t// in\n    tag_112:\n        /* \"#utility.yul\":1647:1677   */\n      swap1\n      pop\n        /* \"#utility.yul\":1686:1719   */\n      tag_113\n        /* \"#utility.yul\":1714:1718   */\n      dup3\n        /* \"#utility.yul\":1706:1712   */\n      dup3\n        /* \"#utility.yul\":1686:1719   */\n      tag_58\n      jump\t// in\n    tag_113:\n        /* \"#utility.yul\":1596:1725   */\n      swap2\n      swap1\n      pop\n      jump\t// out\n        /* \"#utility.yul\":1731:2039   */\n    tag_60:\n        /* \"#utility.yul\":1793:1797   */\n      0x00\n        /* \"#utility.yul\":1883:1901   */\n      0xffffffffffffffff\n        /* \"#utility.yul\":1875:1881   */\n      dup3\n        /* \"#utility.yul\":1872:1902   */\n      gt\n        /* \"#utility.yul\":1869:1925   */\n      iszero\n      tag_115\n      jumpi\n        /* \"#utility.yul\":1905:1923   */\n      tag_116\n      tag_57\n      jump\t// in\n    tag_116:\n        /* \"#utility.yul\":1869:1925   */\n    tag_115:\n        /* \"#utility.yul\":1943:1972   */\n      tag_117\n        /* \"#utility.yul\":1965:1971   */\n      dup3\n        /* \"#utility.yul\":1943:1972   */\n      tag_56\n      jump\t// in\n    tag_117:\n        /* \"#utility.yul\":1935:1972   */\n      swap1\n      pop\n        /* \"#utility.yul\":2027:2031   */\n      0x20\n        /* \"#utility.yul\":2021:2025   */\n      dup2\n        /* \"#utility.yul\":2017:2032   */\n      add\n        /* \"#utility.yul\":2009:2032   */\n      swap1\n      pop\n        /* \"#utility.yul\":1731:2039   */\n      swap2\n      swap1\n      pop\n      jump\t// out\n        /* \"#utility.yul\":2045:2191   */\n    tag_61:\n        /* \"#utility.yul\":2142:2148   */\n      dup3\n        /* \"#utility.yul\":2137:2140   */\n      dup2\n        /* \"#utility.yul\":2132:2135   */\n      dup4\n        /* \"#utility.yul\":2119:2149   */\n      calldatacopy\n        /* \"#utility.yul\":2183:2184   */\n      0x00\n        /* \"#utility.yul\":2174:2180   */\n      dup4\n        /* \"#utility.yul\":2169:2172   */\n      dup4\n        /* \"#utility.yul\":2165:2181   */\n      add\n        /* \"#utility.yul\":2158:2185   */\n      mstore\n        /* \"#utility.yul\":2045:2191   */\n      pop\n      pop\n      pop\n      jump\t// out\n        /* \"#utility.yul\":2197:2622   */\n    tag_62:\n        /* \"#utility.yul\":2275:2280   */\n      0x00\n        /* \"#utility.yul\":2300:2366   */\n      tag_120\n        /* \"#utility.yul\":2316:2365   */\n      tag_121\n        /* \"#utility.yul\":2358:2364   */\n      dup5\n        /* \"#utility.yul\":2316:2365   */\n      tag_60\n      jump\t// in\n    tag_121:\n        /* \"#utility.yul\":2300:2366   */\n      tag_59\n      jump\t// in\n    tag_120:\n        /* \"#utility.yul\":2291:2366   */\n      swap1\n      pop\n        /* \"#utility.yul\":2389:2395   */\n      dup3\n        /* \"#utility.yul\":2382:2387   */\n      dup2\n        /* \"#utility.yul\":2375:2396   */\n      mstore\n        /* \"#utility.yul\":2427:2431   */\n      0x20\n        /* \"#utility.yul\":2420:2425   */\n      dup2\n        /* \"#utility.yul\":2416:2432   */\n      add\n        /* \"#utility.yul\":2465:2468   */\n      dup5\n        /* \"#utility.yul\":2456:2462   */\n      dup5\n        /* \"#utility.yul\":2451:2454   */\n      dup5\n        /* \"#utility.yul\":2447:2463   */\n      add\n        /* \"#utility.yul\":2444:2469   */\n      gt\n        /* \"#utility.yul\":2441:2553   */\n      iszero\n      tag_122\n      jumpi\n        /* \"#utility.yul\":2472:2551   */\n      tag_123\n      tag_55\n      jump\t// in\n    tag_123:\n        /* \"#utility.yul\":2441:2553   */\n    tag_122:\n        /* \"#utility.yul\":2562:2616   */\n      tag_124\n        /* \"#utility.yul\":2609:2615   */\n      dup5\n        /* \"#utility.yul\":2604:2607   */\n      dup3\n        /* \"#utility.yul\":2599:2602   */\n      dup6\n        /* \"#utility.yul\":2562:2616   */\n      tag_61\n      jump\t// in\n    tag_124:\n        /* \"#utility.yul\":2281:2622   */\n      pop\n        /* \"#utility.yul\":2197:2622   */\n      swap4\n      swap3\n      pop\n      pop\n      pop\n      jump\t// out\n        /* \"#utility.yul\":2642:2982   */\n    tag_63:\n        /* \"#utility.yul\":2698:2703   */\n      0x00\n        /* \"#utility.yul\":2747:2750   */\n      dup3\n        /* \"#utility.yul\":2740:2744   */\n      0x1f\n        /* \"#utility.yul\":2732:2738   */\n      dup4\n        /* \"#utility.yul\":2728:2745   */\n      add\n        /* \"#utility.yul\":2724:2751   */\n      slt\n        /* \"#utility.yul\":2714:2836   */\n      tag_126\n      jumpi\n        /* \"#utility.yul\":2755:2834   */\n      tag_127\n      tag_54\n      jump\t// in\n    tag_127:\n        /* \"#utility.yul\":2714:2836   */\n    tag_126:\n        /* \"#utility.yul\":2872:2878   */\n      dup2\n        /* \"#utility.yul\":2859:2879   */\n      calldataload\n        /* \"#utility.yul\":2897:2976   */\n      tag_128\n        /* \"#utility.yul\":2972:2975   */\n      dup5\n        /* \"#utility.yul\":2964:2970   */\n      dup3\n        /* \"#utility.yul\":2957:2961   */\n      0x20\n        /* \"#utility.yul\":2949:2955   */\n      dup7\n        /* \"#utility.yul\":2945:2962   */\n      add\n        /* \"#utility.yul\":2897:2976   */\n      tag_62\n      jump\t// in\n    tag_128:\n        /* \"#utility.yul\":2888:2976   */\n      swap2\n      pop\n        /* \"#utility.yul\":2704:2982   */\n      pop\n        /* \"#utility.yul\":2642:2982   */\n      swap3\n      swap2\n      pop\n      pop\n      jump\t// out\n        /* \"#utility.yul\":2988:3497   */\n    tag_14:\n        /* \"#utility.yul\":3057:3063   */\n      0x00\n        /* \"#utility.yul\":3106:3108   */\n      0x20\n        /* \"#utility.yul\":3094:3103   */\n      dup3\n        /* \"#utility.yul\":3085:3092   */\n      dup5\n        /* \"#utility.yul\":3081:3104   */\n      sub\n        /* \"#utility.yul\":3077:3109   */\n      slt\n        /* \"#utility.yul\":3074:3193   */\n      iszero\n      tag_130\n      jumpi\n        /* \"#utility.yul\":3112:3191   */\n      tag_131\n      tag_52\n      jump\t// in\n    tag_131:\n        /* \"#utility.yul\":3074:3193   */\n    tag_130:\n        /* \"#utility.yul\":3260:3261   */\n      0x00\n        /* \"#utility.yul\":3249:3258   */\n      dup3\n        /* \"#utility.yul\":3245:3262   */\n      add\n        /* \"#utility.yul\":3232:3263   */\n      calldataload\n        /* \"#utility.yul\":3290:3308   */\n      0xffffffffffffffff\n        /* \"#utility.yul\":3282:3288   */\n      dup2\n        /* \"#utility.yul\":3279:3309   */\n      gt\n        /* \"#utility.yul\":3276:3393   */\n      iszero\n      tag_132\n      jumpi\n        /* \"#utility.yul\":3312:3391   */\n      tag_133\n      tag_53\n      jump\t// in\n    tag_133:\n        /* \"#utility.yul\":3276:3393   */\n    tag_132:\n        /* \"#utility.yul\":3417:3480   */\n      tag_134\n        /* \"#utility.yul\":3472:3479   */\n      dup5\n        /* \"#utility.yul\":3463:3469   */\n      dup3\n        /* \"#utility.yul\":3452:3461   */\n      dup6\n        /* \"#utility.yul\":3448:3470   */\n      add\n        /* \"#utility.yul\":3417:3480   */\n      tag_63\n      jump\t// in\n    tag_134:\n        /* \"#utility.yul\":3407:3480   */\n      swap2\n      pop\n        /* \"#utility.yul\":3203:3490   */\n      pop\n        /* \"#utility.yul\":2988:3497   */\n      swap3\n      swap2\n      pop\n      pop\n      jump\t// out\n        /* \"#utility.yul\":3503:3625   */\n    tag_64:\n        /* \"#utility.yul\":3576:3600   */\n      tag_136\n        /* \"#utility.yul\":3594:3599   */\n      dup2\n        /* \"#utility.yul\":3576:3600   */\n      tag_49\n      jump\t// in\n    tag_136:\n        /* \"#utility.yul\":3569:3574   */\n      dup2\n        /* \"#utility.yul\":3566:3601   */\n      eq\n        /* \"#utility.yul\":3556:3619   */\n      tag_137\n      jumpi\n        /* \"#utility.yul\":3615:3616   */\n      0x00\n        /* \"#utility.yul\":3612:3613   */\n      dup1\n        /* \"#utility.yul\":3605:3617   */\n      revert\n        /* \"#utility.yul\":3556:3619   */\n    tag_137:\n        /* \"#utility.yul\":3503:3625   */\n      pop\n      jump\t// out\n        /* \"#utility.yul\":3631:3770   */\n    tag_65:\n        /* \"#utility.yul\":3677:3682   */\n      0x00\n        /* \"#utility.yul\":3715:3721   */\n      dup2\n        /* \"#utility.yul\":3702:3722   */\n      calldataload\n        /* \"#utility.yul\":3693:3722   */\n      swap1\n      pop\n        /* \"#utility.yul\":3731:3764   */\n      tag_139\n        /* \"#utility.yul\":3758:3763   */\n      dup2\n        /* \"#utility.yul\":3731:3764   */\n      tag_64\n      jump\t// in\n    tag_139:\n        /* \"#utility.yul\":3631:3770   */\n      swap3\n      swap2\n      pop\n      pop\n      jump\t// out\n        /* \"#utility.yul\":3776:4105   */\n    tag_18:\n        /* \"#utility.yul\":3835:3841   */\n      0x00\n        /* \"#utility.yul\":3884:3886   */\n      0x20\n        /* \"#utility.yul\":3872:3881   */\n      dup3\n        /* \"#utility.yul\":3863:3870   */\n      dup5\n        /* \"#utility.yul\":3859:3882   */\n      sub\n        /* \"#utility.yul\":3855:3887   */\n      slt\n        /* \"#utility.yul\":3852:3971   */\n      iszero\n      tag_141\n      jumpi\n        /* \"#utility.yul\":3890:3969   */\n      tag_142\n      tag_52\n      jump\t// in\n    tag_142:\n        /* \"#utility.yul\":3852:3971   */\n    tag_141:\n        /* \"#utility.yul\":4010:4011   */\n      0x00\n        /* \"#utility.yul\":4035:4088   */\n      tag_143\n        /* \"#utility.yul\":4080:4087   */\n      dup5\n        /* \"#utility.yul\":4071:4077   */\n      dup3\n        /* \"#utility.yul\":4060:4069   */\n      dup6\n        /* \"#utility.yul\":4056:4078   */\n      add\n        /* \"#utility.yul\":4035:4088   */\n      tag_65\n      jump\t// in\n    tag_143:\n        /* \"#utility.yul\":4025:4088   */\n      swap2\n      pop\n        /* \"#utility.yul\":3981:4098   */\n      pop\n        /* \"#utility.yul\":3776:4105   */\n      swap3\n      swap2\n      pop\n      pop\n      jump\t// out\n        /* \"#utility.yul\":4111:4210   */\n    tag_66:\n        /* \"#utility.yul\":4163:4169   */\n      0x00\n        /* \"#utility.yul\":4197:4202   */\n      dup2\n        /* \"#utility.yul\":4191:4203   */\n      mload\n        /* \"#utility.yul\":4181:4203   */\n      swap1\n      pop\n        /* \"#utility.yul\":4111:4210   */\n      swap2\n      swap1\n      pop\n      jump\t// out\n        /* \"#utility.yul\":4216:4385   */\n    tag_67:\n        /* \"#utility.yul\":4300:4311   */\n      0x00\n        /* \"#utility.yul\":4334:4340   */\n      dup3\n        /* \"#utility.yul\":4329:4332   */\n      dup3\n        /* \"#utility.yul\":4322:4341   */\n      mstore\n        /* \"#utility.yul\":4374:4378   */\n      0x20\n        /* \"#utility.yul\":4369:4372   */\n      dup3\n        /* \"#utility.yul\":4365:4379   */\n      add\n        /* \"#utility.yul\":4350:4379   */\n      swap1\n      pop\n        /* \"#utility.yul\":4216:4385   */\n      swap3\n      swap2\n      pop\n      pop\n      jump\t// out\n        /* \"#utility.yul\":4391:4637   */\n    tag_68:\n        /* \"#utility.yul\":4472:4473   */\n      0x00\n        /* \"#utility.yul\":4482:4595   */\n    tag_147:\n        /* \"#utility.yul\":4496:4502   */\n      dup4\n        /* \"#utility.yul\":4493:4494   */\n      dup2\n        /* \"#utility.yul\":4490:4503   */\n      lt\n        /* \"#utility.yul\":4482:4595   */\n      iszero\n      tag_149\n      jumpi\n        /* \"#utility.yul\":4581:4582   */\n      dup1\n        /* \"#utility.yul\":4576:4579   */\n      dup3\n        /* \"#utility.yul\":4572:4583   */\n      add\n        /* \"#utility.yul\":4566:4584   */\n      mload\n        /* \"#utility.yul\":4562:4563   */\n      dup2\n        /* \"#utility.yul\":4557:4560   */\n      dup5\n        /* \"#utility.yul\":4553:4564   */\n      add\n        /* \"#utility.yul\":4546:4585   */\n      mstore\n        /* \"#utility.yul\":4518:4520   */\n      0x20\n        /* \"#utility.yul\":4515:4516   */\n      dup2\n        /* \"#utility.yul\":4511:4521   */\n      add\n        /* \"#utility.yul\":4506:4521   */\n      swap1\n      pop\n        /* \"#utility.yul\":4482:4595   */\n      jump(tag_147)\n    tag_149:\n        /* \"#utility.yul\":4629:4630   */\n      0x00\n        /* \"#utility.yul\":4620:4626   */\n      dup5\n        /* \"#utility.yul\":4615:4618   */\n      dup5\n        /* \"#utility.yul\":4611:4627   */\n      add\n        /* \"#utility.yul\":4604:4631   */\n      mstore\n        /* \"#utility.yul\":4453:4637   */\n      pop\n        /* \"#utility.yul\":4391:4637   */\n      pop\n      pop\n      pop\n      jump\t// out\n        /* \"#utility.yul\":4643:5020   */\n    tag_69:\n        /* \"#utility.yul\":4731:4734   */\n      0x00\n        /* \"#utility.yul\":4759:4798   */\n      tag_151\n        /* \"#utility.yul\":4792:4797   */\n      dup3\n        /* \"#utility.yul\":4759:4798   */\n      tag_66\n      jump\t// in\n    tag_151:\n        /* \"#utility.yul\":4814:4885   */\n      tag_152\n        /* \"#utility.yul\":4878:4884   */\n      dup2\n        /* \"#utility.yul\":4873:4876   */\n      dup6\n        /* \"#utility.yul\":4814:4885   */\n      tag_67\n      jump\t// in\n    tag_152:\n        /* \"#utility.yul\":4807:4885   */\n      swap4\n      pop\n        /* \"#utility.yul\":4894:4959   */\n      tag_153\n        /* \"#utility.yul\":4952:4958   */\n      dup2\n        /* \"#utility.yul\":4947:4950   */\n      dup6\n        /* \"#utility.yul\":4940:4944   */\n      0x20\n        /* \"#utility.yul\":4933:4938   */\n      dup7\n        /* \"#utility.yul\":4929:4945   */\n      add\n        /* \"#utility.yul\":4894:4959   */\n      tag_68\n      jump\t// in\n    tag_153:\n        /* \"#utility.yul\":4984:5013   */\n      tag_154\n        /* \"#utility.yul\":5006:5012   */\n      dup2\n        /* \"#utility.yul\":4984:5013   */\n      tag_56\n      jump\t// in\n    tag_154:\n        /* \"#utility.yul\":4979:4982   */\n      dup5\n        /* \"#utility.yul\":4975:5014   */\n      add\n        /* \"#utility.yul\":4968:5014   */\n      swap2\n      pop\n        /* \"#utility.yul\":4735:5020   */\n      pop\n        /* \"#utility.yul\":4643:5020   */\n      swap3\n      swap2\n      pop\n      pop\n      jump\t// out\n        /* \"#utility.yul\":5026:5116   */\n    tag_70:\n        /* \"#utility.yul\":5060:5067   */\n      0x00\n        /* \"#utility.yul\":5103:5108   */\n      dup2\n        /* \"#utility.yul\":5096:5109   */\n      iszero\n        /* \"#utility.yul\":5089:5110   */\n      iszero\n        /* \"#utility.yul\":5078:5110   */\n      swap1\n      pop\n        /* \"#utility.yul\":5026:5116   */\n      swap2\n      swap1\n      pop\n      jump\t// out\n        /* \"#utility.yul\":5122:5231   */\n    tag_71:\n        /* \"#utility.yul\":5203:5224   */\n      tag_157\n        /* \"#utility.yul\":5218:5223   */\n      dup2\n        /* \"#utility.yul\":5203:5224   */\n      tag_70\n      jump\t// in\n    tag_157:\n        /* \"#utility.yul\":5198:5201   */\n      dup3\n        /* \"#utility.yul\":5191:5225   */\n      mstore\n        /* \"#utility.yul\":5122:5231   */\n      pop\n      pop\n      jump\t// out\n        /* \"#utility.yul\":5237:5648   */\n    tag_21:\n        /* \"#utility.yul\":5372:5376   */\n      0x00\n        /* \"#utility.yul\":5410:5412   */\n      0x40\n        /* \"#utility.yul\":5399:5408   */\n      dup3\n        /* \"#utility.yul\":5395:5413   */\n      add\n        /* \"#utility.yul\":5387:5413   */\n      swap1\n      pop\n        /* \"#utility.yul\":5459:5468   */\n      dup2\n        /* \"#utility.yul\":5453:5457   */\n      dup2\n        /* \"#utility.yul\":5449:5469   */\n      sub\n        /* \"#utility.yul\":5445:5446   */\n      0x00\n        /* \"#utility.yul\":5434:5443   */\n      dup4\n        /* \"#utility.yul\":5430:5447   */\n      add\n        /* \"#utility.yul\":5423:5470   */\n      mstore\n        /* \"#utility.yul\":5487:5565   */\n      tag_159\n        /* \"#utility.yul\":5560:5564   */\n      dup2\n        /* \"#utility.yul\":5551:5557   */\n      dup6\n        /* \"#utility.yul\":5487:5565   */\n      tag_69\n      jump\t// in\n    tag_159:\n        /* \"#utility.yul\":5479:5565   */\n      swap1\n      pop\n        /* \"#utility.yul\":5575:5641   */\n      tag_160\n        /* \"#utility.yul\":5637:5639   */\n      0x20\n        /* \"#utility.yul\":5626:5635   */\n      dup4\n        /* \"#utility.yul\":5622:5640   */\n      add\n        /* \"#utility.yul\":5613:5619   */\n      dup5\n        /* \"#utility.yul\":5575:5641   */\n      tag_71\n      jump\t// in\n    tag_160:\n        /* \"#utility.yul\":5237:5648   */\n      swap4\n      swap3\n      pop\n      pop\n      pop\n      jump\t// out\n        /* \"#utility.yul\":5654:5780   */\n    tag_72:\n        /* \"#utility.yul\":5691:5698   */\n      0x00\n        /* \"#utility.yul\":5731:5773   */\n      0xffffffffffffffffffffffffffffffffffffffff\n        /* \"#utility.yul\":5724:5729   */\n      dup3\n        /* \"#utility.yul\":5720:5774   */\n      and\n        /* \"#utility.yul\":5709:5774   */\n      swap1\n      pop\n        /* \"#utility.yul\":5654:5780   */\n      swap2\n      swap1\n      pop\n      jump\t// out\n        /* \"#utility.yul\":5786:5882   */\n    tag_73:\n        /* \"#utility.yul\":5823:5830   */\n      0x00\n        /* \"#utility.yul\":5852:5876   */\n      tag_163\n        /* \"#utility.yul\":5870:5875   */\n      dup3\n        /* \"#utility.yul\":5852:5876   */\n      tag_72\n      jump\t// in\n    tag_163:\n        /* \"#utility.yul\":5841:5876   */\n      swap1\n      pop\n        /* \"#utility.yul\":5786:5882   */\n      swap2\n      swap1\n      pop\n      jump\t// out\n        /* \"#utility.yul\":5888:6006   */\n    tag_74:\n        /* \"#utility.yul\":5975:5999   */\n      tag_165\n        /* \"#utility.yul\":5993:5998   */\n      dup2\n        /* \"#utility.yul\":5975:5999   */\n      tag_73\n      jump\t// in\n    tag_165:\n        /* \"#utility.yul\":5970:5973   */\n      dup3\n        /* \"#utility.yul\":5963:6000   */\n      mstore\n        /* \"#utility.yul\":5888:6006   */\n      pop\n      pop\n      jump\t// out\n        /* \"#utility.yul\":6012:6234   */\n    tag_25:\n        /* \"#utility.yul\":6105:6109   */\n      0x00\n        /* \"#utility.yul\":6143:6145   */\n      0x20\n        /* \"#utility.yul\":6132:6141   */\n      dup3\n        /* \"#utility.yul\":6128:6146   */\n      add\n        /* \"#utility.yul\":6120:6146   */\n      swap1\n      pop\n        /* \"#utility.yul\":6156:6227   */\n      tag_167\n        /* \"#utility.yul\":6224:6225   */\n      0x00\n        /* \"#utility.yul\":6213:6222   */\n      dup4\n        /* \"#utility.yul\":6209:6226   */\n      add\n        /* \"#utility.yul\":6200:6206   */\n      dup5\n        /* \"#utility.yul\":6156:6227   */\n      tag_74\n      jump\t// in\n    tag_167:\n        /* \"#utility.yul\":6012:6234   */\n      swap3\n      swap2\n      pop\n      pop\n      jump\t// out\n        /* \"#utility.yul\":6240:6414   */\n    tag_75:\n        /* \"#utility.yul\":6380:6406   */\n      0x4f6e6c79206f776e65722063616e2063616c6c20746869730000000000000000\n        /* \"#utility.yul\":6376:6377   */\n      0x00\n        /* \"#utility.yul\":6368:6374   */\n      dup3\n        /* \"#utility.yul\":6364:6378   */\n      add\n        /* \"#utility.yul\":6357:6407   */\n      mstore\n        /* \"#utility.yul\":6240:6414   */\n      pop\n      jump\t// out\n        /* \"#utility.yul\":6420:6786   */\n    tag_76:\n        /* \"#utility.yul\":6562:6565   */\n      0x00\n        /* \"#utility.yul\":6583:6650   */\n      tag_170\n        /* \"#utility.yul\":6647:6649   */\n      0x18\n        /* \"#utility.yul\":6642:6645   */\n      dup4\n        /* \"#utility.yul\":6583:6650   */\n      tag_67\n      jump\t// in\n    tag_170:\n        /* \"#utility.yul\":6576:6650   */\n      swap2\n      pop\n        /* \"#utility.yul\":6659:6752   */\n      tag_171\n        /* \"#utility.yul\":6748:6751   */\n      dup3\n        /* \"#utility.yul\":6659:6752   */\n      tag_75\n      jump\t// in\n    tag_171:\n        /* \"#utility.yul\":6777:6779   */\n      0x20\n        /* \"#utility.yul\":6772:6775   */\n      dup3\n        /* \"#utility.yul\":6768:6780   */\n      add\n        /* \"#utility.yul\":6761:6780   */\n      swap1\n      pop\n        /* \"#utility.yul\":6420:6786   */\n      swap2\n      swap1\n      pop\n      jump\t// out\n        /* \"#utility.yul\":6792:7211   */\n    tag_32:\n        /* \"#utility.yul\":6958:6962   */\n      0x00\n        /* \"#utility.yul\":6996:6998   */\n      0x20\n        /* \"#utility.yul\":6985:6994   */\n      dup3\n        /* \"#utility.yul\":6981:6999   */\n      add\n        /* \"#utility.yul\":6973:6999   */\n      swap1\n      pop\n        /* \"#utility.yul\":7045:7054   */\n      dup2\n        /* \"#utility.yul\":7039:7043   */\n      dup2\n        /* \"#utility.yul\":7035:7055   */\n      sub\n        /* \"#utility.yul\":7031:7032   */\n      0x00\n        /* \"#utility.yul\":7020:7029   */\n      dup4\n        /* \"#utility.yul\":7016:7033   */\n      add\n        /* \"#utility.yul\":7009:7056   */\n      mstore\n        /* \"#utility.yul\":7073:7204   */\n      tag_173\n        /* \"#utility.yul\":7199:7203   */\n      dup2\n        /* \"#utility.yul\":7073:7204   */\n      tag_76\n      jump\t// in\n    tag_173:\n        /* \"#utility.yul\":7065:7204   */\n      swap1\n      pop\n        /* \"#utility.yul\":6792:7211   */\n      swap2\n      swap1\n      pop\n      jump\t// out\n        /* \"#utility.yul\":7217:7397   */\n    tag_77:\n        /* \"#utility.yul\":7265:7342   */\n      0x4e487b7100000000000000000000000000000000000000000000000000000000\n        /* \"#utility.yul\":7262:7263   */\n      0x00\n        /* \"#utility.yul\":7255:7343   */\n      mstore\n        /* \"#utility.yul\":7362:7366   */\n      0x22\n        /* \"#utility.yul\":7359:7360   */\n      0x04\n        /* \"#utility.yul\":7352:7367   */\n      mstore\n        /* \"#utility.yul\":7386:7390   */\n      0x24\n        /* \"#utility.yul\":7383:7384   */\n      0x00\n        /* \"#utility.yul\":7376:7391   */\n      revert\n        /* \"#utility.yul\":7403:7723   */\n    tag_39:\n        /* \"#utility.yul\":7447:7453   */\n      0x00\n        /* \"#utility.yul\":7484:7485   */\n      0x02\n        /* \"#utility.yul\":7478:7482   */\n      dup3\n        /* \"#utility.yul\":7474:7486   */\n      div\n        /* \"#utility.yul\":7464:7486   */\n      swap1\n      pop\n        /* \"#utility.yul\":7531:7532   */\n      0x01\n        /* \"#utility.yul\":7525:7529   */\n      dup3\n        /* \"#utility.yul\":7521:7533   */\n      and\n        /* \"#utility.yul\":7552:7570   */\n      dup1\n        /* \"#utility.yul\":7542:7623   */\n      tag_176\n      jumpi\n        /* \"#utility.yul\":7608:7612   */\n      0x7f\n        /* \"#utility.yul\":7600:7606   */\n      dup3\n        /* \"#utility.yul\":7596:7613   */\n      and\n        /* \"#utility.yul\":7586:7613   */\n      swap2\n      pop\n        /* \"#utility.yul\":7542:7623   */\n    tag_176:\n        /* \"#utility.yul\":7670:7672   */\n      0x20\n        /* \"#utility.yul\":7662:7668   */\n      dup3\n        /* \"#utility.yul\":7659:7673   */\n      lt\n        /* \"#utility.yul\":7639:7657   */\n      dup2\n        /* \"#utility.yul\":7636:7674   */\n      sub\n        /* \"#utility.yul\":7633:7717   */\n      tag_177\n      jumpi\n        /* \"#utility.yul\":7689:7707   */\n      tag_178\n      tag_77\n      jump\t// in\n    tag_178:\n        /* \"#utility.yul\":7633:7717   */\n    tag_177:\n        /* \"#utility.yul\":7454:7723   */\n      pop\n        /* \"#utility.yul\":7403:7723   */\n      swap2\n      swap1\n      pop\n      jump\t// out\n        /* \"#utility.yul\":7729:7870   */\n    tag_78:\n        /* \"#utility.yul\":7778:7782   */\n      0x00\n        /* \"#utility.yul\":7801:7804   */\n      dup2\n        /* \"#utility.yul\":7793:7804   */\n      swap1\n      pop\n        /* \"#utility.yul\":7824:7827   */\n      dup2\n        /* \"#utility.yul\":7821:7822   */\n      0x00\n        /* \"#utility.yul\":7814:7828   */\n      mstore\n        /* \"#utility.yul\":7858:7862   */\n      0x20\n        /* \"#utility.yul\":7855:7856   */\n      0x00\n        /* \"#utility.yul\":7845:7863   */\n      keccak256\n        /* \"#utility.yul\":7837:7863   */\n      swap1\n      pop\n        /* \"#utility.yul\":7729:7870   */\n      swap2\n      swap1\n      pop\n      jump\t// out\n        /* \"#utility.yul\":7876:7969   */\n    tag_79:\n        /* \"#utility.yul\":7913:7919   */\n      0x00\n        /* \"#utility.yul\":7960:7962   */\n      0x20\n        /* \"#utility.yul\":7955:7957   */\n      0x1f\n        /* \"#utility.yul\":7948:7953   */\n      dup4\n        /* \"#utility.yul\":7944:7958   */\n      add\n        /* \"#utility.yul\":7940:7963   */\n      div\n        /* \"#utility.yul\":7930:7963   */\n      swap1\n      pop\n        /* \"#utility.yul\":7876:7969   */\n      swap2\n      swap1\n      pop\n      jump\t// out\n        /* \"#utility.yul\":7975:8082   */\n    tag_80:\n        /* \"#utility.yul\":8019:8027   */\n      0x00\n        /* \"#utility.yul\":8069:8074   */\n      dup3\n        /* \"#utility.yul\":8063:8067   */\n      dup3\n        /* \"#utility.yul\":8059:8075   */\n      shl\n        /* \"#utility.yul\":8038:8075   */\n      swap1\n      pop\n        /* \"#utility.yul\":7975:8082   */\n      swap3\n      swap2\n      pop\n      pop\n      jump\t// out\n        /* \"#utility.yul\":8088:8481   */\n    tag_81:\n        /* \"#utility.yul\":8157:8163   */\n      0x00\n        /* \"#utility.yul\":8207:8208   */\n      0x08\n        /* \"#utility.yul\":8195:8205   */\n      dup4\n        /* \"#utility.yul\":8191:8209   */\n      mul\n        /* \"#utility.yul\":8230:8327   */\n      tag_183\n        /* \"#utility.yul\":8260:8326   */\n      0xffffffffffffffffffffffffffffffffffffffffffffffffffffffffffffffff\n        /* \"#utility.yul\":8249:8258   */\n      dup3\n        /* \"#utility.yul\":8230:8327   */\n      tag_80\n      jump\t// in\n    tag_183:\n        /* \"#utility.yul\":8348:8387   */\n      tag_184\n        /* \"#utility.yul\":8378:8386   */\n      dup7\n        /* \"#utility.yul\":8367:8376   */\n      dup4\n        /* \"#utility.yul\":8348:8387   */\n      tag_80\n      jump\t// in\n    tag_184:\n        /* \"#utility.yul\":8336:8387   */\n      swap6\n      pop\n        /* \"#utility.yul\":8420:8424   */\n      dup1\n        /* \"#utility.yul\":8416:8425   */\n      not\n        /* \"#utility.yul\":8409:8414   */\n      dup5\n        /* \"#utility.yul\":8405:8426   */\n      and\n        /* \"#utility.yul\":8396:8426   */\n      swap4\n      pop\n        /* \"#utility.yul\":8469:8473   */\n      dup1\n        /* \"#utility.yul\":8459:8467   */\n      dup7\n        /* \"#utility.yul\":8455:8474   */\n      and\n        /* \"#utility.yul\":8448:8453   */\n      dup5\n        /* \"#utility.yul\":8445:8475   */\n      or\n        /* \"#utility.yul\":8435:8475   */\n      swap3\n      pop\n        /* \"#utility.yul\":8164:8481   */\n      pop\n      pop\n        /* \"#utility.yul\":8088:8481   */\n      swap4\n      swap3\n      pop\n      pop\n      pop\n      jump\t// out\n        /* \"#utility.yul\":8487:8547   */\n    tag_82:\n        /* \"#utility.yul\":8515:8518   */\n      0x00\n        /* \"#utility.yul\":8536:8541   */\n      dup2\n        /* \"#utility.yul\":8529:8541   */\n      swap1\n      pop\n        /* \"#utility.yul\":8487:8547   */\n      swap2\n      swap1\n      pop\n      jump\t// out\n        /* \"#utility.yul\":8553:8695   */\n    tag_83:\n        /* \"#utility.yul\":8603:8612   */\n      0x00\n        /* \"#utility.yul\":8636:8689   */\n      tag_187\n        /* \"#utility.yul\":8654:8688   */\n      tag_188\n        /* \"#utility.yul\":8663:8687   */\n      tag_189\n        /* \"#utility.yul\":8681:8686   */\n      dup5\n        /* \"#utility.yul\":8663:8687   */\n      tag_49\n      jump\t// in\n    tag_189:\n        /* \"#utility.yul\":8654:8688   */\n      tag_82\n      jump\t// in\n    tag_188:\n        /* \"#utility.yul\":8636:8689   */\n      tag_49\n      jump\t// in\n    tag_187:\n        /* \"#utility.yul\":8623:8689   */\n      swap1\n      pop\n        /* \"#utility.yul\":8553:8695   */\n      swap2\n      swap1\n      pop\n      jump\t// out\n        /* \"#utility.yul\":8701:8776   */\n    tag_84:\n        /* \"#utility.yul\":8744:8747   */\n      0x00\n        /* \"#utility.yul\":8765:8770   */\n      dup2\n        /* \"#utility.yul\":8758:8770   */\n      swap1\n      pop\n        /* \"#utility.yul\":8701:8776   */\n      swap2\n      swap1\n      pop\n      jump\t// out\n        /* \"#utility.yul\":8782:9051   */\n    tag_85:\n        /* \"#utility.yul\":8892:8931   */\n      tag_192\n        /* \"#utility.yul\":8923:8930   */\n      dup4\n        /* \"#utility.yul\":8892:8931   */\n      tag_83\n      jump\t// in\n    tag_192:\n        /* \"#utility.yul\":8953:9044   */\n      tag_193\n        /* \"#utility.yul\":9002:9043   */\n      tag_194\n        /* \"#utility.yul\":9026:9042   */\n      dup3\n        /* \"#utility.yul\":9002:9043   */\n      tag_84\n      jump\t// in\n    tag_194:\n        /* \"#utility.yul\":8994:9000   */\n      dup5\n        /* \"#utility.yul\":8987:8991   */\n      dup5\n        /* \"#utility.yul\":8981:8992   */\n      sload\n        /* \"#utility.yul\":8953:9044   */\n      tag_81\n      jump\t// in\n    tag_193:\n        /* \"#utility.yul\":8947:8951   */\n      dup3\n        /* \"#utility.yul\":8940:9045   */\n      sstore\n        /* \"#utility.yul\":8858:9051   */\n      pop\n        /* \"#utility.yul\":8782:9051   */\n      pop\n      pop\n      pop\n      jump\t// out\n        /* \"#utility.yul\":9057:9130   */\n    tag_86:\n        /* \"#utility.yul\":9102:9105   */\n      0x00\n        /* \"#utility.yul\":9057:9130   */\n      swap1\n      jump\t// out\n        /* \"#utility.yul\":9136:9325   */\n    tag_87:\n        /* \"#utility.yul\":9213:9245   */\n      tag_197\n      tag_86\n      jump\t// in\n    tag_197:\n        /* \"#utility.yul\":9254:9319   */\n      tag_198\n        /* \"#utility.yul\":9312:9318   */\n      dup2\n        /* \"#utility.yul\":9304:9310   */\n      dup5\n        /* \"#utility.yul\":9298:9302   */\n      dup5\n        /* \"#utility.yul\":9254:9319   */\n      tag_85\n      jump\t// in\n    tag_198:\n        /* \"#utility.yul\":9189:9325   */\n      pop\n        /* \"#utility.yul\":9136:9325   */\n      pop\n      pop\n      jump\t// out\n        /* \"#utility.yul\":9331:9517   */\n    tag_88:\n        /* \"#utility.yul\":9391:9511   */\n    tag_200:\n        /* \"#utility.yul\":9408:9411   */\n      dup2\n        /* \"#utility.yul\":9401:9406   */\n      dup2\n        /* \"#utility.yul\":9398:9412   */\n      lt\n        /* \"#utility.yul\":9391:9511   */\n      iszero\n      tag_202\n      jumpi\n        /* \"#utility.yul\":9462:9501   */\n      tag_203\n        /* \"#utility.yul\":9499:9500   */\n      0x00\n        /* \"#utility.yul\":9492:9497   */\n      dup3\n        /* \"#utility.yul\":9462:9501   */\n      tag_87\n      jump\t// in\n    tag_203:\n        /* \"#utility.yul\":9435:9436   */\n      0x01\n        /* \"#utility.yul\":9428:9433   */\n      dup2\n        /* \"#utility.yul\":9424:9437   */\n      add\n        /* \"#utility.yul\":9415:9437   */\n      swap1\n      pop\n        /* \"#utility.yul\":9391:9511   */\n      jump(tag_200)\n    tag_202:\n        /* \"#utility.yul\":9331:9517   */\n      pop\n      pop\n      jump\t// out\n        /* \"#utility.yul\":9523:10066   */\n    tag_89:\n        /* \"#utility.yul\":9624:9626   */\n      0x1f\n        /* \"#utility.yul\":9619:9622   */\n      dup3\n        /* \"#utility.yul\":9616:9627   */\n      gt\n        /* \"#utility.yul\":9613:10059   */\n      iszero\n      tag_205\n      jumpi\n        /* \"#utility.yul\":9658:9696   */\n      tag_206\n        /* \"#utility.yul\":9690:9695   */\n      dup2\n        /* \"#utility.yul\":9658:9696   */\n      tag_78\n      jump\t// in\n    tag_206:\n        /* \"#utility.yul\":9742:9771   */\n      tag_207\n        /* \"#utility.yul\":9760:9770   */\n      dup5\n        /* \"#utility.yul\":9742:9771   */\n      tag_79\n      jump\t// in\n    tag_207:\n        /* \"#utility.yul\":9732:9740   */\n      dup2\n        /* \"#utility.yul\":9728:9772   */\n      add\n        /* \"#utility.yul\":9925:9927   */\n      0x20\n        /* \"#utility.yul\":9913:9923   */\n      dup6\n        /* \"#utility.yul\":9910:9928   */\n      lt\n        /* \"#utility.yul\":9907:9956   */\n      iszero\n      tag_208\n      jumpi\n        /* \"#utility.yul\":9946:9954   */\n      dup2\n        /* \"#utility.yul\":9931:9954   */\n      swap1\n      pop\n        /* \"#utility.yul\":9907:9956   */\n    tag_208:\n        /* \"#utility.yul\":9969:10049   */\n      tag_209\n        /* \"#utility.yul\":10025:10047   */\n      tag_210\n        /* \"#utility.yul\":10043:10046   */\n      dup6\n        /* \"#utility.yul\":10025:10047   */\n      tag_79\n      jump\t// in\n    tag_210:\n        /* \"#utility.yul\":10015:10023   */\n      dup4\n        /* \"#utility.yul\":10011:10048   */\n      add\n        /* \"#utility.yul\":9998:10009   */\n      dup3\n        /* \"#utility.yul\":9969:10049   */\n      tag_88\n      jump\t// in\n    tag_209:\n        /* \"#utility.yul\":9628:10059   */\n      pop\n      pop\n        /* \"#utility.yul\":9613:10059   */\n    tag_205:\n        /* \"#utility.yul\":9523:10066   */\n      pop\n      pop\n      pop\n      jump\t// out\n        /* \"#utility.yul\":10072:10189   */\n    tag_90:\n        /* \"#utility.yul\":10126:10134   */\n      0x00\n        /* \"#utility.yul\":10176:10181   */\n      dup3\n        /* \"#utility.yul\":10170:10174   */\n      dup3\n        /* \"#utility.yul\":10166:10182   */\n      shr\n        /* \"#utility.yul\":10145:10182   */\n      swap1\n      pop\n        /* \"#utility.yul\":10072:10189   */\n      swap3\n      swap2\n      pop\n      pop\n      jump\t// out\n        /* \"#utility.yul\":10195:10364   */\n    tag_91:\n        /* \"#utility.yul\":10239:10245   */\n      0x00\n        /* \"#utility.yul\":10272:10323   */\n      tag_213\n        /* \"#utility.yul\":10320:10321   */\n      0x00\n        /* \"#utility.yul\":10316:10322   */\n      not\n        /* \"#utility.yul\":10308:10313   */\n      dup5\n        /* \"#utility.yul\":10305:10306   */\n      0x08\n        /* \"#utility.yul\":10301:10314   */\n      mul\n        /* \"#utility.yul\":10272:10323   */\n      tag_90\n      jump\t// in\n    tag_213:\n        /* \"#utility.yul\":10268:10324   */\n      not\n        /* \"#utility.yul\":10353:10357   */\n      dup1\n        /* \"#utility.yul\":10347:10351   */\n      dup4\n        /* \"#utility.yul\":10343:10358   */\n      and\n        /* \"#utility.yul\":10333:10358   */\n      swap2\n      pop\n        /* \"#utility.yul\":10246:10364   */\n      pop\n        /* \"#utility.yul\":10195:10364   */\n      swap3\n      swap2\n      pop\n      pop\n      jump\t// out\n        /* \"#utility.yul\":10369:10664   */\n    tag_92:\n        /* \"#utility.yul\":10445:10449   */\n      0x00\n        /* \"#utility.yul\":10591:10620   */\n      tag_215\n        /* \"#utility.yul\":10616:10619   */\n      dup4\n        /* \"#utility.yul\":10610:10614   */\n      dup4\n        /* \"#utility.yul\":10591:10620   */\n      tag_91\n      jump\t// in\n    tag_215:\n        /* \"#utility.yul\":10583:10620   */\n      swap2\n      pop\n        /* \"#utility.yul\":10653:10656   */\n      dup3\n        /* \"#utility.yul\":10650:10651   */\n      0x02\n        /* \"#utility.yul\":10646:10657   */\n      mul\n        /* \"#utility.yul\":10640:10644   */\n      dup3\n        /* \"#utility.yul\":10637:10658   */\n      or\n        /* \"#utility.yul\":10629:10658   */\n      swap1\n      pop\n        /* \"#utility.yul\":10369:10664   */\n      swap3\n      swap2\n      pop\n      pop\n      jump\t// out\n        /* \"#utility.yul\":10669:12064   */\n    tag_35:\n        /* \"#utility.yul\":10786:10823   */\n      tag_217\n        /* \"#utility.yul\":10819:10822   */\n      dup3\n        /* \"#utility.yul\":10786:10823   */\n      tag_66\n      jump\t// in\n    tag_217:\n        /* \"#utility.yul\":10888:10906   */\n      0xffffffffffffffff\n        /* \"#utility.yul\":10880:10886   */\n      dup2\n        /* \"#utility.yul\":10877:10907   */\n      gt\n        /* \"#utility.yul\":10874:10930   */\n      iszero\n      tag_218\n      jumpi\n        /* \"#utility.yul\":10910:10928   */\n      tag_219\n      tag_57\n      jump\t// in\n    tag_219:\n        /* \"#utility.yul\":10874:10930   */\n    tag_218:\n        /* \"#utility.yul\":10954:10992   */\n      tag_220\n        /* \"#utility.yul\":10986:10990   */\n      dup3\n        /* \"#utility.yul\":10980:10991   */\n      sload\n        /* \"#utility.yul\":10954:10992   */\n      tag_39\n      jump\t// in\n    tag_220:\n        /* \"#utility.yul\":11039:11106   */\n      tag_221\n        /* \"#utility.yul\":11099:11105   */\n      dup3\n        /* \"#utility.yul\":11091:11097   */\n      dup3\n        /* \"#utility.yul\":11085:11089   */\n      dup6\n        /* \"#utility.yul\":11039:11106   */\n      tag_89\n      jump\t// in\n    tag_221:\n        /* \"#utility.yul\":11133:11134   */\n      0x00\n        /* \"#utility.yul\":11157:11161   */\n      0x20\n        /* \"#utility.yul\":11144:11161   */\n      swap1\n      pop\n        /* \"#utility.yul\":11189:11191   */\n      0x1f\n        /* \"#utility.yul\":11181:11187   */\n      dup4\n        /* \"#utility.yul\":11178:11192   */\n      gt\n        /* \"#utility.yul\":11206:11207   */\n      0x01\n        /* \"#utility.yul\":11201:11819   */\n      dup2\n      eq\n      tag_223\n      jumpi\n        /* \"#utility.yul\":11863:11864   */\n      0x00\n        /* \"#utility.yul\":11880:11886   */\n      dup5\n        /* \"#utility.yul\":11877:11954   */\n      iszero\n      tag_224\n      jumpi\n        /* \"#utility.yul\":11929:11938   */\n      dup3\n        /* \"#utility.yul\":11924:11927   */\n      dup8\n        /* \"#utility.yul\":11920:11939   */\n      add\n        /* \"#utility.yul\":11914:11940   */\n      mload\n        /* \"#utility.yul\":11905:11940   */\n      swap1\n      pop\n        /* \"#utility.yul\":11877:11954   */\n    tag_224:\n        /* \"#utility.yul\":11980:12047   */\n      tag_225\n        /* \"#utility.yul\":12040:12046   */\n      dup6\n        /* \"#utility.yul\":12033:12038   */\n      dup3\n        /* \"#utility.yul\":11980:12047   */\n      tag_92\n      jump\t// in\n    tag_225:\n        /* \"#utility.yul\":11974:11978   */\n      dup7\n        /* \"#utility.yul\":11967:12048   */\n      sstore\n        /* \"#utility.yul\":11836:12058   */\n      pop\n        /* \"#utility.yul\":11171:12058   */\n      jump(tag_222)\n        /* \"#utility.yul\":11201:11819   */\n    tag_223:\n        /* \"#utility.yul\":11253:11257   */\n      0x1f\n        /* \"#utility.yul\":11249:11258   */\n      not\n        /* \"#utility.yul\":11241:11247   */\n      dup5\n        /* \"#utility.yul\":11237:11259   */\n      and\n        /* \"#utility.yul\":11287:11324   */\n      tag_226\n        /* \"#utility.yul\":11319:11323   */\n      dup7\n        /* \"#utility.yul\":11287:11324   */\n      tag_78\n      jump\t// in\n    tag_226:\n        /* \"#utility.yul\":11346:11347   */\n      0x00\n        /* \"#utility.yul\":11360:11568   */\n    tag_227:\n        /* \"#utility.yul\":11374:11381   */\n      dup3\n        /* \"#utility.yul\":11371:11372   */\n      dup2\n        /* \"#utility.yul\":11368:11382   */\n      lt\n        /* \"#utility.yul\":11360:11568   */\n      iszero\n      tag_229\n      jumpi\n        /* \"#utility.yul\":11453:11462   */\n      dup5\n        /* \"#utility.yul\":11448:11451   */\n      dup10\n        /* \"#utility.yul\":11444:11463   */\n      add\n        /* \"#utility.yul\":11438:11464   */\n      mload\n        /* \"#utility.yul\":11430:11436   */\n      dup3\n        /* \"#utility.yul\":11423:11465   */\n      sstore\n        /* \"#utility.yul\":11504:11505   */\n      0x01\n        /* \"#utility.yul\":11496:11502   */\n      dup3\n        /* \"#utility.yul\":11492:11506   */\n      add\n        /* \"#utility.yul\":11482:11506   */\n      swap2\n      pop\n        /* \"#utility.yul\":11551:11553   */\n      0x20\n        /* \"#utility.yul\":11540:11549   */\n      dup6\n        /* \"#utility.yul\":11536:11554   */\n      add\n        /* \"#utility.yul\":11523:11554   */\n      swap5\n      pop\n        /* \"#utility.yul\":11397:11401   */\n      0x20\n        /* \"#utility.yul\":11394:11395   */\n      dup2\n        /* \"#utility.yul\":11390:11402   */\n      add\n        /* \"#utility.yul\":11385:11402   */\n      swap1\n      pop\n        /* \"#utility.yul\":11360:11568   */\n      jump(tag_227)\n    tag_229:\n        /* \"#utility.yul\":11596:11602   */\n      dup7\n        /* \"#utility.yul\":11587:11594   */\n      dup4\n        /* \"#utility.yul\":11584:11603   */\n      lt\n        /* \"#utility.yul\":11581:11760   */\n      iszero\n      tag_230\n      jumpi\n        /* \"#utility.yul\":11654:11663   */\n      dup5\n        /* \"#utility.yul\":11649:11652   */\n      dup10\n        /* \"#utility.yul\":11645:11664   */\n      add\n        /* \"#utility.yul\":11639:11665   */\n      mload\n        /* \"#utility.yul\":11697:11745   */\n      tag_231\n        /* \"#utility.yul\":11739:11743   */\n      0x1f\n        /* \"#utility.yul\":11731:11737   */\n      dup10\n        /* \"#utility.yul\":11727:11744   */\n      and\n        /* \"#utility.yul\":11716:11725   */\n      dup3\n        /* \"#utility.yul\":11697:11745   */\n      tag_91\n      jump\t// in\n    tag_231:\n        /* \"#utility.yul\":11689:11695   */\n      dup4\n        /* \"#utility.yul\":11682:11746   */\n      sstore\n        /* \"#utility.yul\":11604:11760   */\n      pop\n        /* \"#utility.yul\":11581:11760   */\n    tag_230:\n        /* \"#utility.yul\":11806:11807   */\n      0x01\n        /* \"#utility.yul\":11802:11803   */\n      0x02\n        /* \"#utility.yul\":11794:11800   */\n      dup9\n        /* \"#utility.yul\":11790:11804   */\n      mul\n        /* \"#utility.yul\":11786:11808   */\n      add\n        /* \"#utility.yul\":11780:11784   */\n      dup9\n        /* \"#utility.yul\":11773:11809   */\n      sstore\n        /* \"#utility.yul\":11208:11819   */\n      pop\n      pop\n      pop\n        /* \"#utility.yul\":11171:12058   */\n    tag_222:\n      pop\n        /* \"#utility.yul\":10761:12064   */\n      pop\n      pop\n      pop\n        /* \"#utility.yul\":10669:12064   */\n      pop\n      pop\n      jump\t// out\n        /* \"#utility.yul\":12070:12250   */\n    tag_93:\n        /* \"#utility.yul\":12118:12195   */\n      0x4e487b7100000000000000000000000000000000000000000000000000000000\n        /* \"#utility.yul\":12115:12116   */\n      0x00\n        /* \"#utility.yul\":12108:12196   */\n      mstore\n        /* \"#utility.yul\":12215:12219   */\n      0x11\n        /* \"#utility.yul\":12212:12213   */\n      0x04\n        /* \"#utility.yul\":12205:12220   */\n      mstore\n        /* \"#utility.yul\":12239:12243   */\n      0x24\n        /* \"#utility.yul\":12236:12237   */\n      0x00\n        /* \"#utility.yul\":12229:12244   */\n      revert\n        /* \"#utility.yul\":12256:12489   */\n    tag_37:\n        /* \"#utility.yul\":12295:12298   */\n      0x00\n        /* \"#utility.yul\":12318:12342   */\n      tag_234\n        /* \"#utility.yul\":12336:12341   */\n      dup3\n        /* \"#utility.yul\":12318:12342   */\n      tag_49\n      jump\t// in\n    tag_234:\n        /* \"#utility.yul\":12309:12342   */\n      swap2\n      pop\n        /* \"#utility.yul\":12364:12430   */\n      0xffffffffffffffffffffffffffffffffffffffffffffffffffffffffffffffff\n        /* \"#utility.yul\":12357:12362   */\n      dup3\n        /* \"#utility.yul\":12354:12431   */\n      sub\n        /* \"#utility.yul\":12351:12454   */\n      tag_235\n      jumpi\n        /* \"#utility.yul\":12434:12452   */\n      tag_236\n      tag_93\n      jump\t// in\n    tag_236:\n        /* \"#utility.yul\":12351:12454   */\n    tag_235:\n        /* \"#utility.yul\":12481:12482   */\n      0x01\n        /* \"#utility.yul\":12474:12479   */\n      dup3\n        /* \"#utility.yul\":12470:12483   */\n      add\n        /* \"#utility.yul\":12463:12483   */\n      swap1\n      pop\n        /* \"#utility.yul\":12256:12489   */\n      swap2\n      swap1\n      pop\n      jump\t// out\n\n    auxdata: 0xa26469706673582212208787effd9f1b56b67108c439647fd88424fdfeddad7035930e22fdbb89d804f264736f6c63430008120033\n}\n",
				"bytecode": {
					"linkReferences": {},
					"object": "6080604052600060015534801561001557600080fd5b5033600260006101000a81548173ffffffffffffffffffffffffffffffffffffffff021916908373ffffffffffffffffffffffffffffffffffffffff160217905550610b5f806100666000396000f3fe608060405234801561001057600080fd5b50600436106100575760003560e01c806306661abd1461005c578063672385621461007a57806380c9419e146100965780638da5cb5b146100c7578063e1e29558146100e5575b600080fd5b610064610101565b604051610071919061042b565b60405180910390f35b610094600480360381019061008f91906105a0565b610107565b005b6100b060048036038101906100ab9190610615565b61021d565b6040516100be9291906106dc565b60405180910390f35b6100cf6102d6565b6040516100dc919061074d565b60405180910390f35b6100ff60048036038101906100fa9190610615565b6102fc565b005b60015481565b3373ffffffffffffffffffffffffffffffffffffffff16600260009054906101000a900473ffffffffffffffffffffffffffffffffffffffff1673ffffffffffffffffffffffffffffffffffffffff1614610197576040517f08c379a000000000000000000000000000000000000000000000000000000000815260040161018e906107b4565b60405180910390fd5b6000604051806040016040528083815260200160001515815250905080600080600154815260200190815260200160002060008201518160000190816101dd91906109e0565b5060208201518160010160006101000a81548160ff0219169083151502179055509050506001600081548092919061021490610ae1565b91905055505050565b600060205280600052604060002060009150905080600001805461024090610803565b80601f016020809104026020016040519081016040528092919081815260200182805461026c90610803565b80156102b95780601f1061028e576101008083540402835291602001916102b9565b820191906000526020600020905b81548152906001019060200180831161029c57829003601f168201915b5050505050908060010160009054906101000a900460ff16905082565b600260009054906101000a900473ffffffffffffffffffffffffffffffffffffffff1681565b3373ffffffffffffffffffffffffffffffffffffffff16600260009054906101000a900473ffffffffffffffffffffffffffffffffffffffff1673ffffffffffffffffffffffffffffffffffffffff161461038c576040517f08c379a0000000000000000000000000000000000000000000000000000000008152600401610383906107b4565b60405180910390fd5b60008082815260200190815260200160002060010160009054906101000a900460ff1661040f57600160008083815260200190815260200160002060010160006101000a81548160ff021916908315150217905550807fd690e0586088db728b1aca4e5e6b673113b5418cb5d31497145ca4a7b6fd466360405160405180910390a25b50565b6000819050919050565b61042581610412565b82525050565b6000602082019050610440600083018461041c565b92915050565b6000604051905090565b600080fd5b600080fd5b600080fd5b600080fd5b6000601f19601f8301169050919050565b7f4e487b7100000000000000000000000000000000000000000000000000000000600052604160045260246000fd5b6104ad82610464565b810181811067ffffffffffffffff821117156104cc576104cb610475565b5b80604052505050565b60006104df610446565b90506104eb82826104a4565b919050565b600067ffffffffffffffff82111561050b5761050a610475565b5b61051482610464565b9050602081019050919050565b82818337600083830152505050565b600061054361053e846104f0565b6104d5565b90508281526020810184848401111561055f5761055e61045f565b5b61056a848285610521565b509392505050565b600082601f8301126105875761058661045a565b5b8135610597848260208601610530565b91505092915050565b6000602082840312156105b6576105b5610450565b5b600082013567ffffffffffffffff8111156105d4576105d3610455565b5b6105e084828501610572565b91505092915050565b6105f281610412565b81146105fd57600080fd5b50565b60008135905061060f816105e9565b92915050565b60006020828403121561062b5761062a610450565b5b600061063984828501610600565b91505092915050565b600081519050919050565b600082825260208201905092915050565b60005b8381101561067c578082015181840152602081019050610661565b60008484015250505050565b600061069382610642565b61069d818561064d565b93506106ad81856020860161065e565b6106b681610464565b840191505092915050565b60008115159050919050565b6106d6816106c1565b82525050565b600060408201905081810360008301526106f68185610688565b905061070560208301846106cd565b9392505050565b600073ffffffffffffffffffffffffffffffffffffffff82169050919050565b60006107378261070c565b9050919050565b6107478161072c565b82525050565b6000602082019050610762600083018461073e565b92915050565b7f4f6e6c79206f776e65722063616e2063616c6c20746869730000000000000000600082015250565b600061079e60188361064d565b91506107a982610768565b602082019050919050565b600060208201905081810360008301526107cd81610791565b9050919050565b7f4e487b7100000000000000000000000000000000000000000000000000000000600052602260045260246000fd5b6000600282049050600182168061081b57607f821691505b60208210810361082e5761082d6107d4565b5b50919050565b60008190508160005260206000209050919050565b60006020601f8301049050919050565b600082821b905092915050565b6000600883026108967fffffffffffffffffffffffffffffffffffffffffffffffffffffffffffffffff82610859565b6108a08683610859565b95508019841693508086168417925050509392505050565b6000819050919050565b60006108dd6108d86108d384610412565b6108b8565b610412565b9050919050565b6000819050919050565b6108f7836108c2565b61090b610903826108e4565b848454610866565b825550505050565b600090565b610920610913565b61092b8184846108ee565b505050565b5b8181101561094f57610944600082610918565b600181019050610931565b5050565b601f8211156109945761096581610834565b61096e84610849565b8101602085101561097d578190505b61099161098985610849565b830182610930565b50505b505050565b600082821c905092915050565b60006109b760001984600802610999565b1980831691505092915050565b60006109d083836109a6565b9150826002028217905092915050565b6109e982610642565b67ffffffffffffffff811115610a0257610a01610475565b5b610a0c8254610803565b610a17828285610953565b600060209050601f831160018114610a4a5760008415610a38578287015190505b610a4285826109c4565b865550610aaa565b601f198416610a5886610834565b60005b82811015610a8057848901518255600182019150602085019450602081019050610a5b565b86831015610a9d5784890151610a99601f8916826109a6565b8355505b6001600288020188555050505b505050505050565b7f4e487b7100000000000000000000000000000000000000000000000000000000600052601160045260246000fd5b6000610aec82610412565b91507fffffffffffffffffffffffffffffffffffffffffffffffffffffffffffffffff8203610b1e57610b1d610ab2565b5b60018201905091905056fea26469706673582212208787effd9f1b56b67108c439647fd88424fdfeddad7035930e22fdbb89d804f264736f6c63430008120033",
					"opcodes": "PUSH1 0x80 PUSH1 0x40 MSTORE PUSH1 0x0 PUSH1 0x1 SSTORE CALLVALUE DUP1 ISZERO PUSH2 0x15 JUMPI PUSH1 0x0 DUP1 REVERT JUMPDEST POP CALLER PUSH1 0x2 PUSH1 0x0 PUSH2 0x100 EXP DUP2 SLOAD DUP2 PUSH20 0xFFFFFFFFFFFFFFFFFFFFFFFFFFFFFFFFFFFFFFFF MUL NOT AND SWAP1 DUP4 PUSH20 0xFFFFFFFFFFFFFFFFFFFFFFFFFFFFFFFFFFFFFFFF AND MUL OR SWAP1 SSTORE POP PUSH2 0xB5F DUP1 PUSH2 0x66 PUSH1 0x0 CODECOPY PUSH1 0x0 RETURN INVALID PUSH1 0x80 PUSH1 0x40 MSTORE CALLVALUE DUP1 ISZERO PUSH2 0x10 JUMPI PUSH1 0x0 DUP1 REVERT JUMPDEST POP PUSH1 0x4 CALLDATASIZE LT PUSH2 0x57 JUMPI PUSH1 0x0 CALLDATALOAD PUSH1 0xE0 SHR DUP1 PUSH4 0x6661ABD EQ PUSH2 0x5C JUMPI DUP1 PUSH4 0x67238562 EQ PUSH2 0x7A JUMPI DUP1 PUSH4 0x80C9419E EQ PUSH2 0x96 JUMPI DUP1 PUSH4 0x8DA5CB5B EQ PUSH2 0xC7 JUMPI DUP1 PUSH4 0xE1E29558 EQ PUSH2 0xE5 JUMPI JUMPDEST PUSH1 0x0 DUP1 REVERT JUMPDEST PUSH2 0x64 PUSH2 0x101 JUMP JUMPDEST PUSH1 0x40 MLOAD PUSH2 0x71 SWAP2 SWAP1 PUSH2 0x42B JUMP JUMPDEST PUSH1 0x40 MLOAD DUP1 SWAP2 SUB SWAP1 RETURN JUMPDEST PUSH2 0x94 PUSH1 0x4 DUP1 CALLDATASIZE SUB DUP2 ADD SWAP1 PUSH2 0x8F SWAP2 SWAP1 PUSH2 0x5A0 JUMP JUMPDEST PUSH2 0x107 JUMP JUMPDEST STOP JUMPDEST PUSH2 0xB0 PUSH1 0x4 DUP1 CALLDATASIZE SUB DUP2 ADD SWAP1 PUSH2 0xAB SWAP2 SWAP1 PUSH2 0x615 JUMP JUMPDEST PUSH2 0x21D JUMP JUMPDEST PUSH1 0x40 MLOAD PUSH2 0xBE SWAP3 SWAP2 SWAP1 PUSH2 0x6DC JUMP JUMPDEST PUSH1 0x40 MLOAD DUP1 SWAP2 SUB SWAP1 RETURN JUMPDEST PUSH2 0xCF PUSH2 0x2D6 JUMP JUMPDEST PUSH1 0x40 MLOAD PUSH2 0xDC SWAP2 SWAP1 PUSH2 0x74D JUMP JUMPDEST PUSH1 0x40 MLOAD DUP1 SWAP2 SUB SWAP1 RETURN JUMPDEST PUSH2 0xFF PUSH1 0x4 DUP1 CALLDATASIZE SUB DUP2 ADD SWAP1 PUSH2 0xFA SWAP2 SWAP1 PUSH2 0x615 JUMP JUMPDEST PUSH2 0x2FC JUMP JUMPDEST STOP JUMPDEST PUSH1 0x1 SLOAD DUP2 JUMP JUMPDEST CALLER PUSH20 0xFFFFFFFFFFFFFFFFFFFFFFFFFFFFFFFFFFFFFFFF AND PUSH1 0x2 PUSH1 0x0 SWAP1 SLOAD SWAP1 PUSH2 0x100 EXP SWAP1 DIV PUSH20 0xFFFFFFFFFFFFFFFFFFFFFFFFFFFFFFFFFFFFFFFF AND PUSH20 0xFFFFFFFFFFFFFFFFFFFFFFFFFFFFFFFFFFFFFFFF AND EQ PUSH2 0x197 JUMPI PUSH1 0x40 MLOAD PUSH32 0x8C379A000000000000000000000000000000000000000000000000000000000 DUP2 MSTORE PUSH1 0x4 ADD PUSH2 0x18E SWAP1 PUSH2 0x7B4 JUMP JUMPDEST PUSH1 0x40 MLOAD DUP1 SWAP2 SUB SWAP1 REVERT JUMPDEST PUSH1 0x0 PUSH1 0x40 MLOAD DUP1 PUSH1 0x40 ADD PUSH1 0x40 MSTORE DUP1 DUP4 DUP2 MSTORE PUSH1 0x20 ADD PUSH1 0x0 ISZERO ISZERO DUP2 MSTORE POP SWAP1 POP DUP1 PUSH1 0x0 DUP1 PUSH1 0x1 SLOAD DUP2 MSTORE PUSH1 0x20 ADD SWAP1 DUP2 MSTORE PUSH1 0x20 ADD PUSH1 0x0 KECCAK256 PUSH1 0x0 DUP3 ADD MLOAD DUP2 PUSH1 0x0 ADD SWAP1 DUP2 PUSH2 0x1DD SWAP2 SWAP1 PUSH2 0x9E0 JUMP JUMPDEST POP PUSH1 0x20 DUP3 ADD MLOAD DUP2 PUSH1 0x1 ADD PUSH1 0x0 PUSH2 0x100 EXP DUP2 SLOAD DUP2 PUSH1 0xFF MUL NOT AND SWAP1 DUP4 ISZERO ISZERO MUL OR SWAP1 SSTORE POP SWAP1 POP POP PUSH1 0x1 PUSH1 0x0 DUP2 SLOAD DUP1 SWAP3 SWAP2 SWAP1 PUSH2 0x214 SWAP1 PUSH2 0xAE1 JUMP JUMPDEST SWAP2 SWAP1 POP SSTORE POP POP POP JUMP JUMPDEST PUSH1 0x0 PUSH1 0x20 MSTORE DUP1 PUSH1 0x0 MSTORE PUSH1 0x40 PUSH1 0x0 KECCAK256 PUSH1 0x0 SWAP2 POP SWAP1 POP DUP1 PUSH1 0x0 ADD DUP1 SLOAD PUSH2 0x240 SWAP1 PUSH2 0x803 JUMP JUMPDEST DUP1 PUSH1 0x1F ADD PUSH1 0x20 DUP1 SWAP2 DIV MUL PUSH1 0x20 ADD PUSH1 0x40 MLOAD SWAP1 DUP2 ADD PUSH1 0x40 MSTORE DUP1 SWAP3 SWAP2 SWAP1 DUP2 DUP2 MSTORE PUSH1 0x20 ADD DUP3 DUP1 SLOAD PUSH2 0x26C SWAP1 PUSH2 0x803 JUMP JUMPDEST DUP1 ISZERO PUSH2 0x2B9 JUMPI DUP1 PUSH1 0x1F LT PUSH2 0x28E JUMPI PUSH2 0x100 DUP1 DUP4 SLOAD DIV MUL DUP4 MSTORE SWAP2 PUSH1 0x20 ADD SWAP2 PUSH2 0x2B9 JUMP JUMPDEST DUP3 ADD SWAP2 SWAP1 PUSH1 0x0 MSTORE PUSH1 0x20 PUSH1 0x0 KECCAK256 SWAP1 JUMPDEST DUP2 SLOAD DUP2 MSTORE SWAP1 PUSH1 0x1 ADD SWAP1 PUSH1 0x20 ADD DUP1 DUP4 GT PUSH2 0x29C JUMPI DUP3 SWAP1 SUB PUSH1 0x1F AND DUP3 ADD SWAP2 JUMPDEST POP POP POP POP POP SWAP1 DUP1 PUSH1 0x1 ADD PUSH1 0x0 SWAP1 SLOAD SWAP1 PUSH2 0x100 EXP SWAP1 DIV PUSH1 0xFF AND SWAP1 POP DUP3 JUMP JUMPDEST PUSH1 0x2 PUSH1 0x0 SWAP1 SLOAD SWAP1 PUSH2 0x100 EXP SWAP1 DIV PUSH20 0xFFFFFFFFFFFFFFFFFFFFFFFFFFFFFFFFFFFFFFFF AND DUP2 JUMP JUMPDEST CALLER PUSH20 0xFFFFFFFFFFFFFFFFFFFFFFFFFFFFFFFFFFFFFFFF AND PUSH1 0x2 PUSH1 0x0 SWAP1 SLOAD SWAP1 PUSH2 0x100 EXP SWAP1 DIV PUSH20 0xFFFFFFFFFFFFFFFFFFFFFFFFFFFFFFFFFFFFFFFF AND PUSH20 0xFFFFFFFFFFFFFFFFFFFFFFFFFFFFFFFFFFFFFFFF AND EQ PUSH2 0x38C JUMPI PUSH1 0x40 MLOAD PUSH32 0x8C379A000000000000000000000000000000000000000000000000000000000 DUP2 MSTORE PUSH1 0x4 ADD PUSH2 0x383 SWAP1 PUSH2 0x7B4 JUMP JUMPDEST PUSH1 0x40 MLOAD DUP1 SWAP2 SUB SWAP1 REVERT JUMPDEST PUSH1 0x0 DUP1 DUP3 DUP2 MSTORE PUSH1 0x20 ADD SWAP1 DUP2 MSTORE PUSH1 0x20 ADD PUSH1 0x0 KECCAK256 PUSH1 0x1 ADD PUSH1 0x0 SWAP1 SLOAD SWAP1 PUSH2 0x100 EXP SWAP1 DIV PUSH1 0xFF AND PUSH2 0x40F JUMPI PUSH1 0x1 PUSH1 0x0 DUP1 DUP4 DUP2 MSTORE PUSH1 0x20 ADD SWAP1 DUP2 MSTORE PUSH1 0x20 ADD PUSH1 0x0 KECCAK256 PUSH1 0x1 ADD PUSH1 0x0 PUSH2 0x100 EXP DUP2 SLOAD DUP2 PUSH1 0xFF MUL NOT AND SWAP1 DUP4 ISZERO ISZERO MUL OR SWAP1 SSTORE POP DUP1 PUSH32 0xD690E0586088DB728B1ACA4E5E6B673113B5418CB5D31497145CA4A7B6FD4663 PUSH1 0x40 MLOAD PUSH1 0x40 MLOAD DUP1 SWAP2 SUB SWAP1 LOG2 JUMPDEST POP JUMP JUMPDEST PUSH1 0x0 DUP2 SWAP1 POP SWAP2 SWAP1 POP JUMP JUMPDEST PUSH2 0x425 DUP2 PUSH2 0x412 JUMP JUMPDEST DUP3 MSTORE POP POP JUMP JUMPDEST PUSH1 0x0 PUSH1 0x20 DUP3 ADD SWAP1 POP PUSH2 0x440 PUSH1 0x0 DUP4 ADD DUP5 PUSH2 0x41C JUMP JUMPDEST SWAP3 SWAP2 POP POP JUMP JUMPDEST PUSH1 0x0 PUSH1 0x40 MLOAD SWAP1 POP SWAP1 JUMP JUMPDEST PUSH1 0x0 DUP1 REVERT JUMPDEST PUSH1 0x0 DUP1 REVERT JUMPDEST PUSH1 0x0 DUP1 REVERT JUMPDEST PUSH1 0x0 DUP1 REVERT JUMPDEST PUSH1 0x0 PUSH1 0x1F NOT PUSH1 0x1F DUP4 ADD AND SWAP1 POP SWAP2 SWAP1 POP JUMP JUMPDEST PUSH32 0x4E487B7100000000000000000000000000000000000000000000000000000000 PUSH1 0x0 MSTORE PUSH1 0x41 PUSH1 0x4 MSTORE PUSH1 0x24 PUSH1 0x0 REVERT JUMPDEST PUSH2 0x4AD DUP3 PUSH2 0x464 JUMP JUMPDEST DUP2 ADD DUP2 DUP2 LT PUSH8 0xFFFFFFFFFFFFFFFF DUP3 GT OR ISZERO PUSH2 0x4CC JUMPI PUSH2 0x4CB PUSH2 0x475 JUMP JUMPDEST JUMPDEST DUP1 PUSH1 0x40 MSTORE POP POP POP JUMP JUMPDEST PUSH1 0x0 PUSH2 0x4DF PUSH2 0x446 JUMP JUMPDEST SWAP1 POP PUSH2 0x4EB DUP3 DUP3 PUSH2 0x4A4 JUMP JUMPDEST SWAP2 SWAP1 POP JUMP JUMPDEST PUSH1 0x0 PUSH8 0xFFFFFFFFFFFFFFFF DUP3 GT ISZERO PUSH2 0x50B JUMPI PUSH2 0x50A PUSH2 0x475 JUMP JUMPDEST JUMPDEST PUSH2 0x514 DUP3 PUSH2 0x464 JUMP JUMPDEST SWAP1 POP PUSH1 0x20 DUP2 ADD SWAP1 POP SWAP2 SWAP1 POP JUMP JUMPDEST DUP3 DUP2 DUP4 CALLDATACOPY PUSH1 0x0 DUP4 DUP4 ADD MSTORE POP POP POP JUMP JUMPDEST PUSH1 0x0 PUSH2 0x543 PUSH2 0x53E DUP5 PUSH2 0x4F0 JUMP JUMPDEST PUSH2 0x4D5 JUMP JUMPDEST SWAP1 POP DUP3 DUP2 MSTORE PUSH1 0x20 DUP2 ADD DUP5 DUP5 DUP5 ADD GT ISZERO PUSH2 0x55F JUMPI PUSH2 0x55E PUSH2 0x45F JUMP JUMPDEST JUMPDEST PUSH2 0x56A DUP5 DUP3 DUP6 PUSH2 0x521 JUMP JUMPDEST POP SWAP4 SWAP3 POP POP POP JUMP JUMPDEST PUSH1 0x0 DUP3 PUSH1 0x1F DUP4 ADD SLT PUSH2 0x587 JUMPI PUSH2 0x586 PUSH2 0x45A JUMP JUMPDEST JUMPDEST DUP2 CALLDATALOAD PUSH2 0x597 DUP5 DUP3 PUSH1 0x20 DUP7 ADD PUSH2 0x530 JUMP JUMPDEST SWAP2 POP POP SWAP3 SWAP2 POP POP JUMP JUMPDEST PUSH1 0x0 PUSH1 0x20 DUP3 DUP5 SUB SLT ISZERO PUSH2 0x5B6 JUMPI PUSH2 0x5B5 PUSH2 0x450 JUMP JUMPDEST JUMPDEST PUSH1 0x0 DUP3 ADD CALLDATALOAD PUSH8 0xFFFFFFFFFFFFFFFF DUP2 GT ISZERO PUSH2 0x5D4 JUMPI PUSH2 0x5D3 PUSH2 0x455 JUMP JUMPDEST JUMPDEST PUSH2 0x5E0 DUP5 DUP3 DUP6 ADD PUSH2 0x572 JUMP JUMPDEST SWAP2 POP POP SWAP3 SWAP2 POP POP JUMP JUMPDEST PUSH2 0x5F2 DUP2 PUSH2 0x412 JUMP JUMPDEST DUP2 EQ PUSH2 0x5FD JUMPI PUSH1 0x0 DUP1 REVERT JUMPDEST POP JUMP JUMPDEST PUSH1 0x0 DUP2 CALLDATALOAD SWAP1 POP PUSH2 0x60F DUP2 PUSH2 0x5E9 JUMP JUMPDEST SWAP3 SWAP2 POP POP JUMP JUMPDEST PUSH1 0x0 PUSH1 0x20 DUP3 DUP5 SUB SLT ISZERO PUSH2 0x62B JUMPI PUSH2 0x62A PUSH2 0x450 JUMP JUMPDEST JUMPDEST PUSH1 0x0 PUSH2 0x639 DUP5 DUP3 DUP6 ADD PUSH2 0x600 JUMP JUMPDEST SWAP2 POP POP SWAP3 SWAP2 POP POP JUMP JUMPDEST PUSH1 0x0 DUP2 MLOAD SWAP1 POP SWAP2 SWAP1 POP JUMP JUMPDEST PUSH1 0x0 DUP3 DUP3 MSTORE PUSH1 0x20 DUP3 ADD SWAP1 POP SWAP3 SWAP2 POP POP JUMP JUMPDEST PUSH1 0x0 JUMPDEST DUP4 DUP2 LT ISZERO PUSH2 0x67C JUMPI DUP1 DUP3 ADD MLOAD DUP2 DUP5 ADD MSTORE PUSH1 0x20 DUP2 ADD SWAP1 POP PUSH2 0x661 JUMP JUMPDEST PUSH1 0x0 DUP5 DUP5 ADD MSTORE POP POP POP POP JUMP JUMPDEST PUSH1 0x0 PUSH2 0x693 DUP3 PUSH2 0x642 JUMP JUMPDEST PUSH2 0x69D DUP2 DUP6 PUSH2 0x64D JUMP JUMPDEST SWAP4 POP PUSH2 0x6AD DUP2 DUP6 PUSH1 0x20 DUP7 ADD PUSH2 0x65E JUMP JUMPDEST PUSH2 0x6B6 DUP2 PUSH2 0x464 JUMP JUMPDEST DUP5 ADD SWAP2 POP POP SWAP3 SWAP2 POP POP JUMP JUMPDEST PUSH1 0x0 DUP2 ISZERO ISZERO SWAP1 POP SWAP2 SWAP1 POP JUMP JUMPDEST PUSH2 0x6D6 DUP2 PUSH2 0x6C1 JUMP JUMPDEST DUP3 MSTORE POP POP JUMP JUMPDEST PUSH1 0x0 PUSH1 0x40 DUP3 ADD SWAP1 POP DUP2 DUP2 SUB PUSH1 0x0 DUP4 ADD MSTORE PUSH2 0x6F6 DUP2 DUP6 PUSH2 0x688 JUMP JUMPDEST SWAP1 POP PUSH2 0x705 PUSH1 0x20 DUP4 ADD DUP5 PUSH2 0x6CD JUMP JUMPDEST SWAP4 SWAP3 POP POP POP JUMP JUMPDEST PUSH1 0x0 PUSH20 0xFFFFFFFFFFFFFFFFFFFFFFFFFFFFFFFFFFFFFFFF DUP3 AND SWAP1 POP SWAP2 SWAP1 POP JUMP JUMPDEST PUSH1 0x0 PUSH2 0x737 DUP3 PUSH2 0x70C JUMP JUMPDEST SWAP1 POP SWAP2 SWAP1 POP JUMP JUMPDEST PUSH2 0x747 DUP2 PUSH2 0x72C JUMP JUMPDEST DUP3 MSTORE POP POP JUMP JUMPDEST PUSH1 0x0 PUSH1 0x20 DUP3 ADD SWAP1 POP PUSH2 0x762 PUSH1 0x0 DUP4 ADD DUP5 PUSH2 0x73E JUMP JUMPDEST SWAP3 SWAP2 POP POP JUMP JUMPDEST PUSH32 0x4F6E6C79206F776E65722063616E2063616C6C20746869730000000000000000 PUSH1 0x0 DUP3 ADD MSTORE POP JUMP JUMPDEST PUSH1 0x0 PUSH2 0x79E PUSH1 0x18 DUP4 PUSH2 0x64D JUMP JUMPDEST SWAP2 POP PUSH2 0x7A9 DUP3 PUSH2 0x768 JUMP JUMPDEST PUSH1 0x20 DUP3 ADD SWAP1 POP SWAP2 SWAP1 POP JUMP JUMPDEST PUSH1 0x0 PUSH1 0x20 DUP3 ADD SWAP1 POP DUP2 DUP2 SUB PUSH1 0x0 DUP4 ADD MSTORE PUSH2 0x7CD DUP2 PUSH2 0x791 JUMP JUMPDEST SWAP1 POP SWAP2 SWAP1 POP JUMP JUMPDEST PUSH32 0x4E487B7100000000000000000000000000000000000000000000000000000000 PUSH1 0x0 MSTORE PUSH1 0x22 PUSH1 0x4 MSTORE PUSH1 0x24 PUSH1 0x0 REVERT JUMPDEST PUSH1 0x0 PUSH1 0x2 DUP3 DIV SWAP1 POP PUSH1 0x1 DUP3 AND DUP1 PUSH2 0x81B JUMPI PUSH1 0x7F DUP3 AND SWAP2 POP JUMPDEST PUSH1 0x20 DUP3 LT DUP2 SUB PUSH2 0x82E JUMPI PUSH2 0x82D PUSH2 0x7D4 JUMP JUMPDEST JUMPDEST POP SWAP2 SWAP1 POP JUMP JUMPDEST PUSH1 0x0 DUP2 SWAP1 POP DUP2 PUSH1 0x0 MSTORE PUSH1 0x20 PUSH1 0x0 KECCAK256 SWAP1 POP SWAP2 SWAP1 POP JUMP JUMPDEST PUSH1 0x0 PUSH1 0x20 PUSH1 0x1F DUP4 ADD DIV SWAP1 POP SWAP2 SWAP1 POP JUMP JUMPDEST PUSH1 0x0 DUP3 DUP3 SHL SWAP1 POP SWAP3 SWAP2 POP POP JUMP JUMPDEST PUSH1 0x0 PUSH1 0x8 DUP4 MUL PUSH2 0x896 PUSH32 0xFFFFFFFFFFFFFFFFFFFFFFFFFFFFFFFFFFFFFFFFFFFFFFFFFFFFFFFFFFFFFFFF DUP3 PUSH2 0x859 JUMP JUMPDEST PUSH2 0x8A0 DUP7 DUP4 PUSH2 0x859 JUMP JUMPDEST SWAP6 POP DUP1 NOT DUP5 AND SWAP4 POP DUP1 DUP7 AND DUP5 OR SWAP3 POP POP POP SWAP4 SWAP3 POP POP POP JUMP JUMPDEST PUSH1 0x0 DUP2 SWAP1 POP SWAP2 SWAP1 POP JUMP JUMPDEST PUSH1 0x0 PUSH2 0x8DD PUSH2 0x8D8 PUSH2 0x8D3 DUP5 PUSH2 0x412 JUMP JUMPDEST PUSH2 0x8B8 JUMP JUMPDEST PUSH2 0x412 JUMP JUMPDEST SWAP1 POP SWAP2 SWAP1 POP JUMP JUMPDEST PUSH1 0x0 DUP2 SWAP1 POP SWAP2 SWAP1 POP JUMP JUMPDEST PUSH2 0x8F7 DUP4 PUSH2 0x8C2 JUMP JUMPDEST PUSH2 0x90B PUSH2 0x903 DUP3 PUSH2 0x8E4 JUMP JUMPDEST DUP5 DUP5 SLOAD PUSH2 0x866 JUMP JUMPDEST DUP3 SSTORE POP POP POP POP JUMP JUMPDEST PUSH1 0x0 SWAP1 JUMP JUMPDEST PUSH2 0x920 PUSH2 0x913 JUMP JUMPDEST PUSH2 0x92B DUP2 DUP5 DUP5 PUSH2 0x8EE JUMP JUMPDEST POP POP POP JUMP JUMPDEST JUMPDEST DUP2 DUP2 LT ISZERO PUSH2 0x94F JUMPI PUSH2 0x944 PUSH1 0x0 DUP3 PUSH2 0x918 JUMP JUMPDEST PUSH1 0x1 DUP2 ADD SWAP1 POP PUSH2 0x931 JUMP JUMPDEST POP POP JUMP JUMPDEST PUSH1 0x1F DUP3 GT ISZERO PUSH2 0x994 JUMPI PUSH2 0x965 DUP2 PUSH2 0x834 JUMP JUMPDEST PUSH2 0x96E DUP5 PUSH2 0x849 JUMP JUMPDEST DUP2 ADD PUSH1 0x20 DUP6 LT ISZERO PUSH2 0x97D JUMPI DUP2 SWAP1 POP JUMPDEST PUSH2 0x991 PUSH2 0x989 DUP6 PUSH2 0x849 JUMP JUMPDEST DUP4 ADD DUP3 PUSH2 0x930 JUMP JUMPDEST POP POP JUMPDEST POP POP POP JUMP JUMPDEST PUSH1 0x0 DUP3 DUP3 SHR SWAP1 POP SWAP3 SWAP2 POP POP JUMP JUMPDEST PUSH1 0x0 PUSH2 0x9B7 PUSH1 0x0 NOT DUP5 PUSH1 0x8 MUL PUSH2 0x999 JUMP JUMPDEST NOT DUP1 DUP4 AND SWAP2 POP POP SWAP3 SWAP2 POP POP JUMP JUMPDEST PUSH1 0x0 PUSH2 0x9D0 DUP4 DUP4 PUSH2 0x9A6 JUMP JUMPDEST SWAP2 POP DUP3 PUSH1 0x2 MUL DUP3 OR SWAP1 POP SWAP3 SWAP2 POP POP JUMP JUMPDEST PUSH2 0x9E9 DUP3 PUSH2 0x642 JUMP JUMPDEST PUSH8 0xFFFFFFFFFFFFFFFF DUP2 GT ISZERO PUSH2 0xA02 JUMPI PUSH2 0xA01 PUSH2 0x475 JUMP JUMPDEST JUMPDEST PUSH2 0xA0C DUP3 SLOAD PUSH2 0x803 JUMP JUMPDEST PUSH2 0xA17 DUP3 DUP3 DUP6 PUSH2 0x953 JUMP JUMPDEST PUSH1 0x0 PUSH1 0x20 SWAP1 POP PUSH1 0x1F DUP4 GT PUSH1 0x1 DUP2 EQ PUSH2 0xA4A JUMPI PUSH1 0x0 DUP5 ISZERO PUSH2 0xA38 JUMPI DUP3 DUP8 ADD MLOAD SWAP1 POP JUMPDEST PUSH2 0xA42 DUP6 DUP3 PUSH2 0x9C4 JUMP JUMPDEST DUP7 SSTORE POP PUSH2 0xAAA JUMP JUMPDEST PUSH1 0x1F NOT DUP5 AND PUSH2 0xA58 DUP7 PUSH2 0x834 JUMP JUMPDEST PUSH1 0x0 JUMPDEST DUP3 DUP2 LT ISZERO PUSH2 0xA80 JUMPI DUP5 DUP10 ADD MLOAD DUP3 SSTORE PUSH1 0x1 DUP3 ADD SWAP2 POP PUSH1 0x20 DUP6 ADD SWAP5 POP PUSH1 0x20 DUP2 ADD SWAP1 POP PUSH2 0xA5B JUMP JUMPDEST DUP7 DUP4 LT ISZERO PUSH2 0xA9D JUMPI DUP5 DUP10 ADD MLOAD PUSH2 0xA99 PUSH1 0x1F DUP10 AND DUP3 PUSH2 0x9A6 JUMP JUMPDEST DUP4 SSTORE POP JUMPDEST PUSH1 0x1 PUSH1 0x2 DUP9 MUL ADD DUP9 SSTORE POP POP POP JUMPDEST POP POP POP POP POP POP JUMP JUMPDEST PUSH32 0x4E487B7100000000000000000000000000000000000000000000000000000000 PUSH1 0x0 MSTORE PUSH1 0x11 PUSH1 0x4 MSTORE PUSH1 0x24 PUSH1 0x0 REVERT JUMPDEST PUSH1 0x0 PUSH2 0xAEC DUP3 PUSH2 0x412 JUMP JUMPDEST SWAP2 POP PUSH32 0xFFFFFFFFFFFFFFFFFFFFFFFFFFFFFFFFFFFFFFFFFFFFFFFFFFFFFFFFFFFFFFFF DUP3 SUB PUSH2 0xB1E JUMPI PUSH2 0xB1D PUSH2 0xAB2 JUMP JUMPDEST JUMPDEST PUSH1 0x1 DUP3 ADD SWAP1 POP SWAP2 SWAP1 POP JUMP INVALID LOG2 PUSH5 0x6970667358 0x22 SLT KECCAK256 DUP8 DUP8 0xEF REVERT SWAP16 SHL JUMP 0xB6 PUSH18 0x8C439647FD88424FDFEDDAD7035930E22FD 0xBB DUP10 0xD8 DIV CALLCODE PUSH5 0x736F6C6343 STOP ADDMOD SLT STOP CALLER "
				},
				"gasEstimates": {
					"creation": {
						"codeDepositCost": "582200",
						"executionCost": "29885",
						"totalCost": "612085"
					},
					"external": {
						"addTask(string)": "infinite",
						"completeTask(uint256)": "30385",
						"count()": "2407",
						"list(uint256)": "infinite",
						"owner()": "2558"
					}
				},
				"methodIdentifiers": {
					"addTask(string)": "67238562",
					"completeTask(uint256)": "e1e29558",
					"count()": "06661abd",
					"list(uint256)": "80c9419e",
					"owner()": "8da5cb5b"
				}
			},
			"storageLayout": {
				"storage": [
					{
						"astId": 11,
						"contract": "contracts/TodoList.sol:TodoList",
						"label": "list",
						"offset": 0,
						"slot": "0",
						"type": "t_mapping(t_uint256,t_struct(TodoItem)6_storage)"
					},
					{
						"astId": 14,
						"contract": "contracts/TodoList.sol:TodoList",
						"label": "count",
						"offset": 0,
						"slot": "1",
						"type": "t_uint256"
					},
					{
						"astId": 16,
						"contract": "contracts/TodoList.sol:TodoList",
						"label": "owner",
						"offset": 0,
						"slot": "2",
						"type": "t_address"
					}
				],
				"types": {
					"t_address": {
						"encoding": "inplace",
						"label": "address",
						"numberOfBytes": "20"
					},
					"t_bool": {
						"encoding": "inplace",
						"label": "bool",
						"numberOfBytes": "1"
					},
					"t_mapping(t_uint256,t_struct(TodoItem)6_storage)": {
						"encoding": "mapping",
						"key": "t_uint256",
						"label": "mapping(uint256 => struct TodoList.TodoItem)",
						"numberOfBytes": "32",
						"value": "t_struct(TodoItem)6_storage"
					},
					"t_string_storage": {
						"encoding": "bytes",
						"label": "string",
						"numberOfBytes": "32"
					},
					"t_struct(TodoItem)6_storage": {
						"encoding": "inplace",
						"label": "struct TodoList.TodoItem",
						"members": [
							{
								"astId": 3,
								"contract": "contracts/TodoList.sol:TodoList",
								"label": "task",
								"offset": 0,
								"slot": "0",
								"type": "t_string_storage"
							},
							{
								"astId": 5,
								"contract": "contracts/TodoList.sol:TodoList",
								"label": "isComplete",
								"offset": 0,
								"slot": "1",
								"type": "t_bool"
							}
						],
						"numberOfBytes": "64"
					},
					"t_uint256": {
						"encoding": "inplace",
						"label": "uint256",
						"numberOfBytes": "32"
					}
				}
			},
			"userdoc": {
				"kind": "user",
				"methods": {},
				"version": 1
			}
		}
	}
}